:020000040800F2
:1000000000500020FD270008DD230008E52300083C
:10001000ED230008F5230008FD2300080000000080
:10002000000000000000000000000000052400089F
:1000300011240008000000001D24000829240008E5
:1000400045280008452800084528000845280008DC
:1000500045280008452800084528000845280008CC
:1000600045280008452800084528000845280008BC
:1000700045280008452800084528000845280008AC
:10008000452800084528000845280008452800089C
:10009000452800084528000845280008452800088C
:1000A000452800084528000845280008452800087C
:1000B000692400084528000845280008452800084C
:1000C000452800084528000845280008452800085C
:1000D00045280008E1240008F92400080D2500083F
:1000E00045280008452800084528000800000000B1
:1000F0000000000000000000000000000000000000
:0C01000000000000000000005FF808F1A3
:1001100010B5054C237833B9044B13B10448AFF341
:1001200000800123237010BD180200200000000091
:10013000CCB2000808B5034B1BB103490348AFF329
:10014000008008BD000000001C020020CCB20008A6
:10015000034613F8012B002AFBD1181A0138704707
:1001600081F0004102E000BF83F0004330B54FEA68
:1001700041044FEA430594EA050F08BF90EA020FD5
:100180001FBF54EA000C55EA020C7FEA645C7FEA68
:10019000655C00F0E2804FEA5454D4EB5555B8BF8B
:1001A0006D420CDD2C4480EA020281EA030382EAFC
:1001B000000083EA010180EA020281EA0303362D8E
:1001C00088BF30BD11F0004F4FEA01314FF4801C61
:1001D0004CEA113102D0404261EB410113F0004F73
:1001E0004FEA03334CEA133302D0524263EB43032A
:1001F00094EA050F00F0A780A4F10104D5F1200EC8
:100200000DDB02FA0EFC22FA05F2801841F1000122
:1002100003FA0EF2801843FA05F359410EE0A5F1F6
:1002200020050EF1200E012A03FA0EFC28BF4CF027
:10023000020C43FA05F3C01851EBE37101F00045DD
:1002400007D54FF0000EDCF1000C7EEB00006EEBEA
:100250000101B1F5801F1BD3B1F5001F0CD3490874
:100260005FEA30004FEA3C0C04F101044FEA4452CB
:1002700012F5800F80F09A80BCF1004F08BF5FEA52
:10028000500C50F1000041EB045141EA050130BD32
:100290005FEA4C0C404141EB0101013C28BFB1F544
:1002A000801FE9D291F0000F04BF01460020B1FA8F
:1002B00081F308BF2033A3F10B03B3F120020CDA62
:1002C0000C3208DD02F1140CC2F10C0201FA0CF040
:1002D00021FA02F10CE002F11402D8BFC2F1200CA5
:1002E00001FA02F120FA0CFCDCBF41EA0C0190405B
:1002F000E41AA2BF01EB0451294330BD6FEA0404A4
:100300001F3C1CDA0C340EDC04F11404C4F120028E
:1003100020FA04F001FA02F340EA030021FA04F3A0
:1003200045EA030130BDC4F10C04C4F1200220FAF7
:1003300002F001FA04F340EA0300294630BD21FA35
:1003400004F0294630BD94F0000F83F4801306BFFB
:1003500081F480110134013D4EE77FEA645C18BFEF
:100360007FEA655C29D094EA050F08BF90EA020F86
:1003700005D054EA000C04BF1946104630BD91EA7E
:10038000030F1EBF0021002030BD5FEA545C05D181
:100390004000494128BF41F0004130BD14F58004C0
:1003A0003CBF01F5801130BD01F0004545F0FE4134
:1003B00041F470014FF0000030BD7FEA645C1ABF69
:1003C000194610467FEA655C1CBF0B46024650EAA0
:1003D000013406BF52EA033591EA030F41F40021CC
:1003E00030BD00BF90F0000F04BF0021704730B552
:1003F0004FF4806404F132044FF000054FF0000127
:1004000050E700BF90F0000F04BF0021704730B5E7
:100410004FF4806404F1320410F0004548BF4042BC
:100420004FF000013EE700BF42004FEAE2014FEA11
:1004300031014FEA02701FBF12F07F4393F07F4FEC
:1004400081F06051704732F07F4208BF704793F0EF
:100450007F4F04BF41F40021704730B54FF4607402
:1004600001F0004521F000411CE700BF50EA010205
:1004700008BF704730B54FF000050AE050EA0102AE
:1004800008BF704730B511F0004502D5404261EB1E
:1004900041014FF4806404F132045FEA915C3FF45F
:1004A000D8AE4FF003025FEADC0C18BF03325FEAFC
:1004B000DC0C18BF033202EBDC02C2F1200300FAAD
:1004C00003FC20FA02F001FA03FE40EA0E0021FAD2
:1004D00002F11444BDE600BF70B54FF0FF0C4CF4C0
:1004E000E06C1CEA11541DBF1CEA135594EA0C0F72
:1004F00095EA0C0F00F0DEF82C4481EA030621EAAD
:100500004C5123EA4C5350EA013518BF52EA0335E7
:1005100041F4801143F4801338D0A0FB02CE4FF099
:100520000005E1FB02E506F00042E0FB03E54FF0C9
:100530000006E1FB03569CF0000F18BF4EF0010EC1
:10054000A4F1FF04B6F5007F64F5407404D25FEABD
:100550004E0E6D4146EB060642EAC62141EA555170
:100560004FEAC52040EA5E504FEACE2EB4F1FD0CB2
:1005700088BFBCF5E06F1ED8BEF1004F08BF5FEA30
:10058000500E50F1000041EB045170BD06F00046E2
:1005900046EA010140EA020081EA0301B4EB5C048F
:1005A000C2BFD4EB0C0541EA045170BD41F4801187
:1005B0004FF0000E013C00F3AB8014F1360FDEBFAC
:1005C000002001F0004170BDC4F10004203C35DA88
:1005D0000C341BDC04F11404C4F1200500FA05F30B
:1005E00020FA04F001FA05F240EA020001F00042AC
:1005F00021F0004110EBD37021FA04F642EB060122
:100600005EEA430E08BF20EAD37070BDC4F10C044B
:10061000C4F1200500FA04F320FA05F001FA04F20F
:1006200040EA020001F0004110EBD37041F10001FB
:100630005EEA430E08BF20EAD37070BDC4F1200506
:1006400000FA05F24EEA020E20FA04F301FA05F26E
:1006500043EA020321FA04F001F0004121FA04F216
:1006600020EA020000EBD3705EEA430E08BF20EAE6
:10067000D37070BD94F0000F0FD101F00046400020
:1006800041EB010111F4801F08BF013CF7D041EAA2
:10069000060195F0000F18BF704703F000465200A6
:1006A00043EB030313F4801F08BF013DF7D043EA77
:1006B0000603704794EA0C0F0CEA135518BF95EA2D
:1006C0000C0F0CD050EA410618BF52EA4306D1D1B4
:1006D00081EA030101F000414FF0000070BD50EAD3
:1006E000410606BF1046194652EA430619D094EA5D
:1006F0000C0F02D150EA013613D195EA0C0F05D147
:1007000052EA03361CBF104619460AD181EA03019A
:1007100001F0004141F0FE4141F470014FF0000052
:1007200070BD41F0FE4141F4780170BD70B54FF0ED
:10073000FF0C4CF4E06C1CEA11541DBF1CEA13556D
:1007400094EA0C0F95EA0C0F00F0A7F8A4EB05044F
:1007500081EA030E52EA03354FEA013100F0888046
:100760004FEA03334FF0805545EA131343EA12630F
:100770004FEA022245EA111545EA10654FEA0026C4
:100780000EF000419D4208BF964244F1FD0404F57D
:10079000407402D25B084FEA3202B61A65EB0305D9
:1007A0005B084FEA32024FF480104FF4002CB6EB96
:1007B000020E75EB030E22BFB61A754640EA0C0016
:1007C0005B084FEA3202B6EB020E75EB030E22BF56
:1007D000B61A754640EA5C005B084FEA3202B6EB97
:1007E000020E75EB030E22BFB61A754640EA9C0056
:1007F0005B084FEA3202B6EB020E75EB030E22BF26
:10080000B61A754640EADC0055EA060E18D04FEAE3
:10081000051545EA16754FEA06164FEAC30343EA83
:1008200052734FEAC2025FEA1C1CC0D111F4801F50
:100830000BD141EA00014FF000004FF0004CB6E749
:1008400011F4801F04BF01430020B4F1FD0C88BFE8
:10085000BCF5E06F3FF6AFAEB5EB030C04BFB6EBF3
:10086000020C5FEA500C50F1000041EB045170BDE6
:100870000EF0004E4EEA113114EB5C04C2BFD4EB13
:100880000C0541EA045170BD41F480114FF0000E97
:10089000013C90E645EA060E8DE60CEA135594EA13
:1008A0000C0F08BF95EA0C0F3FF43BAF94EA0C0F16
:1008B0000AD150EA01347FF434AF95EA0C0F7FF48B
:1008C00025AF104619462CE795EA0C0F06D152EADF
:1008D00003353FF4FDAE1046194622E750EA4106C3
:1008E00018BF52EA43067FF4C5AE50EA41047FF4D4
:1008F0000DAF52EA43057FF4EBAE12E74FF0FF3C39
:1009000006E000BF4FF0010C02E000BF4FF0010C09
:100910004DF804CD4FEA410C7FEA6C5C4FEA430C82
:1009200018BF7FEA6C5C1BD001B050EA410C0CBFD1
:1009300052EA430C91EA030F02BF90EA020F002033
:10094000704710F1000F91EA030F58BF994208BF9A
:1009500090422CBFD8176FEAE37040F00100704757
:100960004FEA410C7FEA6C5C02D150EA013C07D1AE
:100970004FEA430C7FEA6C5CD6D152EA033CD3D0F9
:100980005DF8040B704700BF8446104662468C46F3
:100990001946634600E000BF01B5FFF7B7FF002826
:1009A00048BF10F1000F01BD4DF808EDFFF7F4FF4F
:1009B0000CBF012000205DF808FB00BF4DF808EDDA
:1009C000FFF7EAFF34BF012000205DF808FB00BFFD
:1009D0004DF808EDFFF7E0FF94BF012000205DF81F
:1009E00008FB00BF4DF808EDFFF7CEFF94BF0120D4
:1009F00000205DF808FB00BF4DF808EDFFF7C4FFCD
:100A000034BF012000205DF808FB00BF4FEA410C15
:100A10007FEA6C5C02D150EA013C0AD14FEA430CF8
:100A20007FEA6C5C02D152EA033C02D14FF0000035
:100A300070474FF0010070474FEA410212F5001273
:100A400015D211D56FF47873B3EB625212D94FEA15
:100A5000C12343F0004343EA505311F0004F23FAFF
:100A600002F018BF404270474FF00000704750EA54
:100A7000013005D111F0004008BF6FF00040704711
:100A80004FF00000704700BF4A0011D212F500126B
:100A900011D20DD56FF47873B3EB62520ED44FEAD6
:100AA000C12343F0004343EA505323FA02F0704756
:100AB0004FF00000704750EA013002D14FF0FF3094
:100AC00070474FF0000070474FEA4102B2F1E04337
:100AD00024BFB3F5001CDCF1FE5C0DD901F0004C25
:100AE0004FEAC0024CEA5070B2F1004F40EB830075
:100AF00008BF20F00100704711F0804F21D113F1A1
:100B00003872BCBF01F00040704741F480114FEAD9
:100B10005252C2F11802C2F1200C10FA0CF320FA62
:100B200002F018BF40F001004FEAC1234FEAD3237F
:100B300003FA0CFC40EA0C0023FA02F34FEA4303E9
:100B4000CCE77FEA625307D150EA01331EBF4FF072
:100B5000FE4040F44000704701F0004040F0FE408D
:100B600040F40000704700BF80F0004002E000BF8A
:100B700081F0004142001FBF5FEA410392EA030F88
:100B80007FEA226C7FEA236C6AD04FEA1262D2EBD2
:100B90001363C1BFD218414048404140B8BF5B42D7
:100BA000192B88BF704710F0004F40F4000020F070
:100BB0007F4018BF404211F0004F41F4000121F086
:100BC0007F4118BF494292EA030F3FD0A2F10102D0
:100BD00041FA03FC10EB0C00C3F1200301FA03F10E
:100BE00000F0004302D5494260EB4000B0F5000F31
:100BF00013D3B0F1807F06D340084FEA310102F1F0
:100C00000102FE2A51D2B1F1004F40EBC25008BFA1
:100C100020F0010040EA03007047490040EB00006B
:100C2000013A28BFB0F5000FEDD2B0FA80FCACF16C
:100C3000080CB2EB0C0200FA0CF0AABF00EBC25099
:100C400052421843BCBFD0401843704792F0000F87
:100C500081F4000106BF80F400000132013BB5E7DA
:100C60004FEA41037FEA226C18BF7FEA236C21D050
:100C700092EA030F04D092F0000F08BF08467047B5
:100C800090EA010F1CBF0020704712F07F4F04D183
:100C9000400028BF40F00040704712F100723CBF96
:100CA00000F50000704700F0004343F0FE4040F4C0
:100CB000000070477FEA226216BF08467FEA23637E
:100CC0000146420206BF5FEA412390EA010F40F469
:100CD000800070474FF0000304E000BF10F00043B5
:100CE00048BF40425FEA000C08BF704743F096439C
:100CF00001464FF000001CE050EA010208BF7047B7
:100D00004FF000030AE000BF50EA010208BF70473D
:100D100011F0004302D5404261EB41015FEA010C52
:100D200002BF84460146002043F0B64308BFA3F14A
:100D30008053A3F50003BCFA8CF2083AA3EBC2532C
:100D400010DB01FA02FC634400FA02FCC2F120024B
:100D5000BCF1004F20FA02F243EB020008BF20F082
:100D60000100704702F1200201FA02FCC2F12002E8
:100D700050EA4C0021FA02F243EB020008BF20EADD
:100D8000DC7070474FF0FF0C1CEAD0521EBF1CEA0B
:100D9000D15392EA0C0F93EA0C0F6FD01A4480EAF9
:100DA000010C400218BF5FEA41211ED04FF00063E2
:100DB00043EA501043EA5111A0FB01310CF000400E
:100DC000B1F5000F3EBF490041EAD3715B0040EA34
:100DD000010062F17F02FD2A1DD8B3F1004F40EB04
:100DE000C25008BF20F00100704790F0000F0CF0D7
:100DF000004C08BF49024CEA502040EA51207F3A9B
:100E0000C2BFD2F1FF0340EAC250704740F4000075
:100E10004FF00003013A5DDC12F1190FDCBF00F066
:100E200000407047C2F10002410021FA02F1C2F114
:100E3000200200FA02FC5FEA310040F1000053EAB0
:100E40004C0308BF20EADC70704792F0000F00F0FE
:100E5000004C02BF400010F4000F013AF9D040EA04
:100E60000C0093F0000F01F0004C02BF490011F498
:100E7000000F013BF9D041EA0C018FE70CEAD15396
:100E800092EA0C0F18BF93EA0C0F0AD030F0004C16
:100E900018BF31F0004CD8D180EA010000F00040CA
:100EA000704790F0000F17BF90F0004F084691F088
:100EB000000F91F0004F14D092EA0C0F01D14202C2
:100EC0000FD193EA0C0F03D14B0218BF084608D18B
:100ED00080EA010000F0004040F0FE4040F40000D5
:100EE000704740F0FE4040F4400070474FF0FF0C68
:100EF0001CEAD0521EBF1CEAD15392EA0C0F93EAAF
:100F00000C0F69D0A2EB030280EA010C49024FEA00
:100F1000402037D04FF0805343EA111143EA1013B9
:100F20000CF000408B4238BF5B0042F17D024FF471
:100F3000000C8B4224BF5B1A40EA0C00B3EB510F4C
:100F400024BFA3EB510340EA5C00B3EB910F24BF35
:100F5000A3EB910340EA9C00B3EBD10F24BFA3EBBA
:100F6000D10340EADC001B0118BF5FEA1C1CE0D182
:100F7000FD2A3FF650AF8B4240EBC25008BF20F035
:100F8000010070470CF0004C4CEA50207F32C2BF89
:100F9000D2F1FF0340EAC250704740F400004FF026
:100FA0000003013A37E792F0000F00F0004C02BF57
:100FB000400010F4000F013AF9D040EA0C0093F021
:100FC000000F01F0004C02BF490011F4000F013B7B
:100FD000F9D041EA0C0195E70CEAD15392EA0C0FE3
:100FE00008D142027FF47DAF93EA0C0F7FF470AF1B
:100FF000084676E793EA0C0F04D14B023FF44CAF5E
:1010000008466EE730F0004C18BF31F0004CCAD1F2
:1010100030F000427FF45CAF31F000437FF43CAF2E
:101020005FE700BF42000ED2B2F1FE4F0BD34FF08C
:101030009E03B3EB126209D44FEA002343F000434E
:1010400023FA02F070474FF00000704712F1610F71
:1010500001D1420202D14FF0FF3070474FF0000043
:10106000704700BF38B50022002304460D46FFF745
:10107000A5FC28B920462946BDE8384000F00AB84A
:10108000204605F1004100F005F8404261EB4101C6
:1010900038BD00BFD0B500220B4B06460F46FFF708
:1010A0001BFAFFF7F1FC0446FFF79CF90022074BFF
:1010B000FFF712FA02460B4630463946FFF754F85E
:1010C000FFF7E2FC2146D0BD0000F03D0000F041FA
:1010D00080B500AF0E4B00221A700D4B3C225A60B7
:1010E0000B4B00229A600A4B3222DA60084B4FF415
:1010F000FA721A6101F000FC0346054A5361044B81
:1011000000221A7600F04CF900F021FA00BF80BDF1
:101110003402002080B582B000AF78607B68132B6A
:1011200001D814237B607B685A2B01D95A237B603A
:101130000B4A7B6853600A4B14229A60084B0122C9
:101140001A70074B00221A7600F064F9044B9B6872
:10115000DBB2184600F034F900BF0837BD4680BD49
:101160003402002080B483B000AF78607B680E2B1F
:1011700001D80F237B60044A7B68D36000BF0C3723
:10118000BD4680BC704700BF3402002080B584B0EB
:1011900000AF786001F0B0FBF860114A7B68136122
:1011A0000F4B5B69FA689A4216D00D4AFB6853618F
:1011B0000B4B1B78032B0BD0032B0DDC002B0AD021
:1011C000002B09DB013B012B06D800F00BF803E0F4
:1011D00000F06AF800E000BF00BF1037BD4680BDD8
:1011E0003402002090B583B000AF2E4B1B69082B52
:1011F00003D82C4B03221A7050E02A4B5B687B60AB
:10120000284B1A69274BDB689A4230D2254B0222C1
:101210001A70244B1B690E2B02D814237B602CE020
:10122000204B1B690F3B1846FFF754FD04461D4B2E
:10123000DB680F3B1846FFF74DFD03461946204675
:10124000FFF754FE03463B60164B5B68143B1846A1
:10125000FFF740FD034639681846FFF793FD034644
:101260001846FFF7DFFE034614337B6005E00D4BA5
:1012700001221A700B4B5B687B600A4B9B687A6893
:101280009A4203D9786800F03FF807E0054B9B6865
:101290007A689A4202D2786800F05CF80C37BD4652
:1012A00090BD00BF3402002080B500AF154B9B6895
:1012B000002B16D0134B9B680E2B05D9114B9B6846
:1012C0000F3B104A936002E00E4B00229A600D4BD8
:1012D0009B68DBB2184600F073F80A4B01221A76BD
:1012E00001E000F034F9074B1B69322B07D9054B9D
:1012F00001221A70034B00221A7600F08BF800BF0F
:1013000080BD00BF3402002080B584B000AF78609B
:101310000F4B9B687A689A4215D90D4B9B687A6887
:10132000D31AFB60FB680A2B28BF0A23BB60084B5B
:101330009A68BB681344064A9360054B9B68DBB20E
:10134000184600F03DF800BF1037BD4680BD00BF15
:101350003402002080B584B000AF78600F4B9B68EA
:101360007A689A4215D20D4B9A687B68D31AFB6053
:10137000FB680A2B28BF0A23BB60084B9A68BB682E
:10138000D31A064A9360054B9B68DBB2184600F0FF
:1013900017F800BF1037BD4680BD00BF34020020E3
:1013A00080B500AF0021054803F016FE0C2103486C
:1013B00003F012FE00F0CBF800BF80BD5C030020FC
:1013C00080B485B000AF0346FB71FB79642B01D973
:1013D0006423FB710D4B1B68DB6AFB81FB89FA7987
:1013E00002FB03F30A4A82FB03125211DB17D31AE2
:1013F000BB81064B1B68BA895A63044B1B68BA89C8
:101400001A6400BF1437BD4680BC70475C030020DF
:101410001F85EB5180B500AF012208210A4801F079
:10142000A4FE00221021084801F09FFE0122202185
:10143000054801F09AFE00224FF48071024801F045
:1014400094FE00BF80BD00BF000C014080B500AF1E
:10145000012208210A4801F088FE002210210848D4
:1014600001F083FE00222021054801F07EFE0022CB
:101470004FF48071024801F078FE00BF80BD00BFCC
:10148000000C014080B500AF002208210A4801F09D
:101490006CFE00221021084801F067FE0122202185
:1014A000054801F062FE00224FF48071024801F00D
:1014B0005CFE00BF80BD00BF000C014080B586B05F
:1014C00000AFF860B9607A60BB681E2B19D8FB6862
:1014D0002C2B16D97B680A2B38BF0A237B6147F275
:1014E00030527B69B2FBF3F33B61FFF7AFFF386922
:1014F00001F00CFA00F02BF8642001F007FAFFF776
:1015000089FF00BF1837BD4680BD80B586B000AFEB
:10151000F860B9607A60FB681E2B14D8BB682C2B6E
:1015200011D97B680A2B38BF0A237B6147F23052FE
:101530007B69B2FBF3F33B61FFF7A4FF386901F06D
:10154000E5F9FFF767FF00BF1837BD4680BD80B5DE
:1015500000AF0020FFF734FF00BF80BD80B400AFB4
:1015600072B600BF054B1B68044A43F005031360C5
:1015700062B600BF00BFBD4680BC704710E000E00F
:1015800080B400AF72B600BF054B1B68044A23F05D
:101590000503136062B600BF00BFBD4680BC704744
:1015A00010E000E080B584B000AFF8607A601A46C1
:1015B0000B467B8113463B813B891946786801F0D5
:1015C000BDFD0346002B34D1FFF7DAFF1E4803F0C0
:1015D0002BFC7B8901221946F86801F0C6FD1B4BE4
:1015E00000221A8000BF00BF184B1B88012BFBD9BB
:1015F0007B8900221946F86801F0B7FD00BF3B89DE
:101600001946786801F09AFD0346002BF7D0104B7D
:1016100000221A8000BF3B891946786801F08EFDD0
:101620000346002BF7D1084803F050FCFFF796FF64
:1016300003E0074B4FF4FA721A80054B1B881846DB
:101640001037BD4680BD00BFA40300206A02002001
:101650006802002080B586B002AF0346FB71FB79BB
:1016600023F00F03FB73FB791B01BB73FB7B43F080
:101670000C03DBB23B72FB7B43F00803DBB27B72F3
:10168000BB7B43F00C03DBB2BB72BB7B43F00803B4
:10169000DBB2FB7207F108026423009304234E219E
:1016A000034801F0BFFE00BF1037BD4680BD00BF3C
:1016B0000803002080B500AF322001F027F9302068
:1016C000FFF7C8FF052001F021F93020FFF7C2FF26
:1016D000012001F01BF93020FFF7BCFF0A2001F0C8
:1016E00015F92020FFF7B6FF0A2001F00FF9282096
:1016F000FFF7B0FF012001F009F90820FFF7AAFF6A
:10170000012001F003F90120FFF7A4FF012001F0FF
:10171000FDF8012001F0FAF80620FFF79BFF0120F9
:1017200001F0F4F80C20FFF795FF00BF80BD00002A
:1017300090B585B000AF01F087F800F02FF94FF4B5
:101740007A7001F0E3F800F081FB00F06DF900F031
:1017500099F900F043FA00F0FBFA00F023FB00F0E7
:101760004BFBFFF7B5FC4620FFF7D4FC3C20FFF70E
:10177000F9FCFFF79FFF00F09BFF754800F000FCAD
:1017800001227449744804F0BBFB00224FF400515D
:10179000724801F0EAFC00224FF480416F4801F0EA
:1017A000E4FC00224FF400416C4801F0DEFC0A200A
:1017B00001F0ACF86A49664800F00EFC684BB3F9DA
:1017C0000030002B02DA03F5FF531F335B131AB20C
:1017D000644B1A80624BB3F90230002B02DA03F536
:1017E000FF531F335B131AB25F4B1A805C4BB3F984
:1017F0000430002B02DA03F5FF531F335B131AB2D8
:101800005A4B1A80574BB3F9003083F002031BB2D6
:101810001A46554BB3F9003083F002031BB2134450
:10182000524AB2F9002082F0020212B21344184662
:10183000FEF7E8FD02460B461046194609F04CFC3F
:1018400002460B4610461946FFF7F6F803461AB251
:10185000474B1A80424BB3F90630464A82FB0312CB
:101860005211DB17D31A1AB2434B1A803C4BB3F90F
:101870000830404A82FB03125211DB17D31A1AB206
:101880003E4B1A803A4BB3F90030022B09DC3A4B3D
:10189000B3F90030C82B04DC384BB3F90030C82B47
:1018A0001CDD01F029F8B860354B1B68BA68D31A03
:1018B0004FF4C872934211D3324B1C68314B1B68F2
:1018C0001846FEF745FC03469AB24FF0FF33214617
:1018D000214804F08AFA2A4ABB6813600023FB817E
:1018E0001FE0294AFB891380FB89284A52F823000C
:1018F000FB89274A32F81310FB89264A52F8232025
:10190000FB89254C34F81330FC89FFF74BFE034666
:101910001A46630010333B4423F8102CFB89013333
:10192000FB81FB89022BDCD93B881846FFF72EFC94
:101930007B881846BB8846221946FFF7E6FD7B8860
:101940001846BB8846221946FFF7B8FD2FE700BFAF
:1019500008030020C40200207C0400200010014085
:10196000500200207402002076020020780200203D
:101970006E0200203DCB883E7002002072020020E3
:101980007C0200202C0000206C02002004000020BB
:1019900010000020180000202400002080B590B026
:1019A00000AF07F1180328220021184606F045F879
:1019B0003B1D00221A605A609A60DA601A610123A6
:1019C000BB614FF48033FB6100233B620123BB62A8
:1019D00002237B634FF48033BB634FF4E013FB635C
:1019E00007F11803184602F0BFFD0346002B01D093
:1019F00000F086FA0F237B600223BB600023FB60AC
:101A00004FF480633B6100237B613B1D022118463C
:101A100003F02CF80346002B01D000F071FA00BF50
:101A20004037BD4680BD000080B500AF124B134A61
:101A30001A60114B124A5A600F4B00229A600E4BEB
:101A40000022DA600C4B4FF480421A610A4B0022EC
:101A50005A61094B00229A61074B0022DA61064B5A
:101A600000221A62044801F099FB0346002B01D0C2
:101A700000F046FA00BF80BD08030020005400407B
:101A8000A086010080B596B000AF07F148030022A0
:101A90001A605A609A60DA6007F1400300221A6007
:101AA0005A6007F1240300221A605A609A60DA60D3
:101AB0001A615A619A613B1D20220021184605F0E7
:101AC000BCFF444B444A1A60424B47225A60414B88
:101AD00000229A603F4B40F2E732DA603D4B002231
:101AE0001A613C4B00225A613A4B00229A613948F4
:101AF00003F04AF90346002B01D000F001FA4FF43D
:101B00008053BB6407F148031946324803F0B8FC20
:101B10000346002B01D000F0F3F92E4803F004FA3D
:101B20000346002B01D000F0EBF900233B640023B7
:101B30007B6407F140031946264804F045F8034644
:101B4000002B01D000F0DCF960237B620023BB6234
:101B50000023FB6200233B6300237B630023BB6302
:101B60000023FB6307F1240300221946194803F000
:101B7000C5FB0346002B01D000F0C2F907F1240396
:101B80000C221946134803F0B9FB0346002B01D081
:101B900000F0B6F900237B600023BB600023FB60EC
:101BA00000233B6100237B614FF40053BB610023A2
:101BB0003B623B1D1946074804F064F80346002BBE
:101BC00001D000F09DF9034800F0FCFA00BF58373F
:101BD000BD4680BD5C030020002C014080B586B06E
:101BE00000AF07F1080300221A605A609A60DA60B9
:101BF0003B4600221A605A601D4B4FF080421A602B
:101C00001B4B48225A601A4B00229A60184B39220B
:101C1000DA60174B00221A61154B00229A611448B2
:101C200003F0B2F80346002B01D000F069F94FF43D
:101C30008053BB6007F1080319460D4803F020FCF0
:101C40000346002B01D000F05BF900233B6000232A
:101C50007B603B461946064803F0B6FF0346002B5F
:101C600001D000F04DF900BF1837BD4680BD00BF60
:101C7000A403002080B582B000AF78607B682A4A58
:101C8000934227D1294B1B783E2B0AD8274B1B7830
:101C90005A1CD1B2254A11701A46254B1978254B8A
:101CA0009954234B1B78212B0FD1204B1B781A46BC
:101CB000204B002199541D4B1A781F4B1A701F4B53
:101CC00001221A70194B00221A7001221849164875
:101CD00004F016F97B681A4A934220D1194B1B78FD
:101CE0003E2B0AD8174B1B785A1CD1B2154A1170DB
:101CF0001A46154B1978154B9954134B1B780A2B20
:101D000008D1104B1B781A46104B002199540D4BEB
:101D100000221A7001220C49094804F0F1F800BFB2
:101D20000837BD4680BD00BF340400208302002078
:101D30008202002084020020810200208002002014
:101D40007C040020C5020020C4020020C80200203C
:101D500080B500AF114B124A1A60104B4FF4165267
:101D60005A600E4B00229A600C4B0022DA600B4B3B
:101D700000221A61094B0C225A61084B00229A6119
:101D8000064B0022DA61054803F0DFFF0346002B13
:101D900001D000F0B5F800BF80BD00BFEC0300200B
:101DA0000038014080B500AF114B124A1A60104B49
:101DB0004FF416525A600E4B00229A600C4B0022D0
:101DC000DA600B4B00221A61094B0C225A61084B56
:101DD00000229A61064B0022DA61054803F0B5FF44
:101DE0000346002B01D000F08BF800BF80BD00BF80
:101DF000340400200044004080B500AF114B124A6B
:101E00001A60104B4FF416525A600E4B00229A6023
:101E10000C4B0022DA600B4B00221A61094B0C229A
:101E20005A61084B00229A61064B0022DA6105488C
:101E300003F08BFF0346002B01D000F061F800BFD8
:101E400080BD00BF7C0400200048004080B588B001
:101E500000AF07F1100300221A605A609A60DA603E
:101E6000244B9B69234A43F020039361214B9B69D8
:101E700003F02003FB60FB681E4B9B691D4A43F087
:101E8000040393611B4B9B6903F00403BB60BB68B5
:101E9000184B9B69174A43F008039361154B9B69E4
:101EA00003F008037B607B68002247F23811124878
:101EB00001F05BF970233B6100237B610023BB6170
:101EC00007F1100319460D4800F0B4FF47F238132C
:101ED0003B6101237B610023BB610223FB6107F1AE
:101EE00010031946044800F0A5FF00BF2037BD4687
:101EF00080BD00BF00100240000C014000080140FE
:101F000080B400AF00BFBD4680BC704780B588B0CC
:101F100004AFF8607A601A460B46FB721346BB7238
:101F2000FB7A9AB2BB7A9BB24FF0FF3102910193D8
:101F30007B6800930123D021F86801F071FB00BF9A
:101F40001037BD4680BD80B588B004AFF8607A60B8
:101F50001A460B46FB721346BB72FB7A9AB2BB7AE7
:101F60009BB24FF0FF31029101937B6800930123F4
:101F7000D021F86801F04EFC00BF1037BD4680BD8F
:101F800080B584B000AF78600023FB7307F10F02C7
:101F900001236B217868FFF7B9FF0723FB7307F173
:101FA0000F02012319217868FFF7B0FF0023FB73AC
:101FB00007F10F0201231C217868FFF7A7FF002318
:101FC000FB7307F10F0201231B217868FFF79EFFC7
:101FD00000BF1037BD4680BD80B586B000AF7860C9
:101FE000396007F1100206233B217868FFF7ABFF49
:101FF0003B7C1B021AB27B7C1BB213431AB23B68B8
:102000001A80BB7C1B021AB2FB7C1BB213431AB2B0
:102010003B685A803B7D1B021AB27B7D1BB2134387
:102020001AB23B689A8007F10802062343217868B8
:10203000FFF789FF3B7A1B021AB27B7A1BB213436C
:102040001AB23B68DA80BB7A1B021AB2FB7A1BB267
:1020500013431AB23B681A813B7B1B021AB2BB7B4B
:102060001BB213431AB23B685A8100BF1837BD46F2
:1020700080BD000080B485B000AF154B9B69144A49
:1020800043F001039361124B9B6903F00103BB60B2
:10209000BB680F4BDB690E4A43F08053D3610C4B96
:1020A000DB6903F080537B607B680A4B5B68FB60F5
:1020B000FB6823F0E063FB60FB6843F00073FB60A8
:1020C000044AFB68536000BF1437BD4680BC7047AC
:1020D000001002400000014080B588B000AF786079
:1020E00007F1100300221A605A609A60DA607B6878
:1020F0001B68154A934223D1144B9B69134A43F042
:1021000008039361114B9B6903F00803FB60FB68B4
:10211000C0233B6112237B610323FB6107F11003A2
:1021200019460B4800F086FE084BDB69074A43F46A
:102130000013D361054BDB6903F40013BB60BB687C
:1021400000BF2037BD4680BD005400400010024053
:10215000000C014080B584B000AF78607B681B68DC
:10216000164A93420CD1164B9B69154A43F40063FF
:102170009361134B9B6903F40063FB60FB6818E0F9
:102180007B681B68B3F1804F13D10D4BDB690C4AA0
:1021900043F00103D3610A4BDB6903F00103BB6029
:1021A000BB68002200211C2000F05BFD1C2000F019
:1021B00074FD00BF1037BD4680BD00BF002C01403C
:1021C0000010024080B588B000AF786007F11003BE
:1021D00000221A605A609A60DA607B681B68104AB5
:1021E000934218D10F4B9B690E4A43F0040393614D
:1021F0000C4B9B6903F00403FB60FB684FF4106316
:102200003B6102237B610223FB6107F11003194646
:10221000054800F00FFE00BF2037BD4680BD00BF5F
:10222000002C0140001002400008014080B58CB035
:1022300000AF786007F1200300221A605A609A60AC
:10224000DA607B681B685F4A93423AD15E4B9B69B8
:102250005D4A43F4804393615B4B9B6903F4804385
:10226000FB61FB69584B9B69574A43F00403936138
:10227000554B9B6903F00403BB61BB694FF40073CA
:102280003B6202237B620323FB6207F120031946B2
:102290004E4800F0CFFD4FF480633B6200237B6229
:1022A0000023BB6207F120031946484800F0C2FD35
:1022B00000220021252000F0D4FC252000F0EDFCB8
:1022C0007CE07B681B68424A934238D13E4BDB6915
:1022D0003D4A43F40033D3613B4BDB6903F40033E5
:1022E0007B617B69384B9B69374A43F004039361F8
:1022F000354B9B6903F004033B613B6904233B625C
:1023000002237B620323FB6207F1200319462F4857
:1023100000F090FD08233B6200237B620023BB6238
:1023200007F120031946294800F084FD002200210E
:10233000262000F096FC262000F0AFFC3EE07B68F3
:102340001B68244A934239D11F4BDB691E4A43F470
:102350008023D3611C4BDB6903F48023FB60FB68A3
:10236000194B9B69184A43F008039361164B9B690C
:1023700003F00803BB60BB684FF480633B62022339
:102380007B620323FB6207F120031946124800F029
:1023900051FD4FF400633B6200237B620023BB626C
:1023A00007F1200319460C4800F044FD00220021EB
:1023B000272000F056FC272000F06FFC00BF3037CC
:1023C000BD4680BD003801400010024000080140B9
:1023D0000044004000480040000C014080B400AFC1
:1023E00000BFFDE780B400AF00BFFDE780B400AFE1
:1023F00000BFFDE780B400AF00BFFDE780B400AFD1
:1024000000BFFDE780B400AF00BFBD4680BC704791
:1024100080B400AF00BFBD4680BC704780B400AF41
:1024200000BFBD4680BC704780B500AF0C4B1B8819
:102430009BB2002B06D00A4B1B889BB2013B9AB281
:10244000074B1A80074B1B68002B04DD054B1B68EC
:10245000013B044A136000F03DFA00BF80BD00BF9D
:10246000C80400200000002080B500AF164B1B8878
:102470001A46164B53F82230134A12881146144A52
:1024800032F811201146184600F058FE0346002B82
:102490000AD0104B1B88B3F5FA7F05D20D4B1B8871
:1024A00001339AB20B4B1A800B4B1B88012B05D8BA
:1024B000094B1B8801339AB2074B1A80074802F078
:1024C0002DFE00BF80BD00BF6C0200201800002060
:1024D00024000020680200206A020020A4030020DB
:1024E00080B500AF034800F02BF9024803F02EFD41
:1024F00000BF80BDEC03002080B500AF024803F0B0
:1025000025FD00BF80BD00BF3404002080B500AFB2
:10251000024803F01BFD00BF80BD00BF7C0400200B
:1025200080B400AF01231846BD4680BC704780B51B
:1025300082B000AF7860396005F0E4FA03461622F5
:102540001A604FF0FF3318460837BD4680BD80B58E
:1025500082B000AF78604FF0FF317868FFF7E7FF97
:1025600000BFFDE780B586B000AFF860B9607A6063
:1025700000237B610AE0AFF300800146BB685A1C70
:10258000BA60CAB21A707B6901337B617A697B6871
:102590009A42F0DB7B6818461837BD4680BD80B58F
:1025A00086B000AFF860B9607A6000237B6109E013
:1025B000BB685A1CBA601B781846AFF300807B6971
:1025C00001337B617A697B689A42F1DB7B6818464C
:1025D0001837BD4680BD80B483B000AF78604FF03F
:1025E000FF3318460C37BD4680BC704780B483B0BB
:1025F00000AF786039603B684FF400525A600023A6
:1026000018460C37BD4680BC704780B483B000AF1D
:102610007860012318460C37BD4680BC704780B4F3
:1026200085B000AFF860B9607A60002318461437AF
:10263000BD4680BC7047000080B586B000AF7860B2
:10264000144A154BD31A7B617B693B61134B1B68A2
:10265000002B02D1114B124A1A60104B1A687B688A
:1026600013443A699A4207D205F04CFA03460C2209
:102670001A604FF0FF3309E0084B1B68FB60074B03
:102680001A687B681344054A1360FB6818461837BC
:10269000BD4680BD0050002000040000C40400209E
:1026A000380A002080B400AF00BFBD4680BC704730
:1026B00080B400AF0C4B0D4A1A600D4B0D4A1A60E6
:1026C0000D4B1B685A690C4B1B6842F001025A61A2
:1026D000094B1B68DA68084B1B6842F02002DA607D
:1026E00000BFBD4680BC7047DC080020CC04002041
:1026F000E0080020D4060020EC03002080B485B060
:1027000000AF03463960FB713B68D3F800320133F8
:10271000C3F30803FB603B68D3F80422FB689A42CA
:1027200009D03B68D3F800323A68F979D154FA6895
:102730003B68C3F8002200BF1437BD4680BC704719
:1027400080B586B000AF78607B681B681B687B61D2
:102750007B681B68DB683B617B6903F02003002B0F
:1027600013D03B6903F02003002B0ED07B681B685D
:102770001B687B681B685B68FB731E4B1A68FB7BDE
:1027800011461846FFF7BAFF31E07B6903F080037A
:10279000002B2CD03B6903F08003002B27D0164B75
:1027A000D3F80022144BD3F804329A4208D17B6844
:1027B0001B68DA687B681B6822F08002DA6015E02B
:1027C0000D4BD3F804320C4AD35CBB730A4BD3F8DD
:1027D00004320133C3F30803074AC2F804327B68AA
:1027E0001B681B687B681B68BA7B5A6000BF183780
:1027F000BD4680BDDC080020D4060020FFF752FF54
:102800000B480C490C4A002302E0D458C45004334E
:10281000C4188C42F9D3094A094C002301E0136023
:102820000432A242FBD305F073F9FEF781FF704733
:10283000000000201802002068B7000818020020DD
:10284000380A0020FEE7000080B500AF084B1B6887
:10285000074A43F010031360032000F0F7F90F203C
:1028600000F008F8FFF706FC0023184680BD00BF03
:102870000020024080B582B000AF7860124B1A6829
:10288000124B1B7819464FF47A73B3FBF1F3B2FB8A
:10289000F3F3184600F00FFA0346002B01D0012392
:1028A0000EE07B680F2B0AD8002279684FF0FF30CA
:1028B00000F0D7F9064A7B681360002300E001238B
:1028C00018460837BD4680BD300000203800002083
:1028D0003400002080B400AF054B1B781A46054B2E
:1028E0001B681344034A136000BFBD4680BC704799
:1028F00038000020E808002080B400AF024B1B68BD
:102900001846BD4680BC7047E808002090B587B0E7
:1029100000AF7860FFF7F0FF38617B687B617B690F
:10292000B3F1FF3F00F09B80544B1B781A467B6944
:1029300013447B6193E052495248FFF74DFB504BE3
:10294000B3F90030002B02DA03F5FF531F335B139A
:102950001AB24D4B1A804A4BB3F90230002B02DAFF
:1029600003F5FF531F335B131AB2484B1A80444BD5
:10297000B3F90430002B02DA03F5FF531F335B1366
:102980001AB2434B1A80404BB3F9003083F0020374
:102990001BB21A463D4BB3F9003083F002031BB261
:1029A00013443B4AB2F9002082F0020212B21344EF
:1029B0001846FDF727FD02460B461046194608F05B
:1029C0008BFB02460B4610461946FEF735F80346C8
:1029D0001AB2304B1A802A4BB3F906302E4A82FBCA
:1029E00003125211DB17D31A1AB22C4B1A80244B44
:1029F000B3F90830284A82FB03125211DB17D31AAD
:102A00001AB2274B1A80234BB3F90030022B09DC92
:102A1000224BB3F90030C82B04DC214BB3F9003052
:102A2000C82B1CDDFFF768FFF8601E4B1B68FA68B7
:102A3000D21A1D4B1B689A4211D31C4B1C681B4BAE
:102A40001B681846FDF784FB03469AB24FF0FF332C
:102A50002146174803F0C9F9124AFB681360FFF7D3
:102A60004BFF02463B69D31A7A699A423FF663AF3D
:102A700000BF00BF1C37BD4690BD00BF380000201E
:102A8000500200200803002074020020760200207B
:102A9000780200206E0200203DCB883E70020020AC
:102AA00072020020E4080020FCB200082C00002084
:102AB0007C04002080B485B000AF78607B6803F0B0
:102AC0000703FB600C4BDB68BB60BA684FF6FF0383
:102AD0001340BB60FB681A02BB68134343F0BF633B
:102AE00043F40033BB60044ABB68D36000BF1437B3
:102AF000BD4680BC704700BF00ED00E080B400AF71
:102B0000044BDB681B0A03F007031846BD4680BC74
:102B1000704700BF00ED00E080B483B000AF034613
:102B2000FB7197F90730002B0BDBFB7903F01F02D9
:102B3000064997F907305B09012000FA02F241F8D3
:102B4000232000BF0C37BD4680BC704700E100E089
:102B500080B483B000AF03463960FB7197F907304A
:102B6000002B0ADB3B68DAB20C4997F907301201F7
:102B7000D2B20B4483F800230AE03B68DAB208497A
:102B8000FB7903F00F03043B1201D2B20B441A7617
:102B900000BF0C37BD4680BC704700BF00E100E0BD
:102BA00000ED00E080B489B000AFF860B9607A60F1
:102BB000FB6803F00703FB61FB69C3F10703042B08
:102BC00028BF0423BB61FB690433062B02D9FB69D0
:102BD000033B00E000237B614FF0FF32BB6902FA48
:102BE00003F3DA43BB681A407B699A404FF0FF3128
:102BF0007B6901FA03F3D9437B680B401343184602
:102C00002437BD4680BC704780B582B000AF786085
:102C10007B68013BB3F1807F01D301230FE00A4AB7
:102C20007B68013B53600F214FF0FF30FFF790FFAF
:102C3000054B00229A60044B07221A6000231846B5
:102C40000837BD4680BD00BF10E000E080B582B00F
:102C500000AF78607868FFF72DFF00BF0837BD46EA
:102C600080BD80B586B000AF0346B9607A60FB7363
:102C700000237B61FFF742FF78617A68B968786961
:102C8000FFF790FF024697F90F3011461846FFF7FD
:102C90005FFF00BF1837BD4680BD80B582B000AF72
:102CA0000346FB7197F907301846FFF735FF00BF61
:102CB0000837BD4680BD80B582B000AF78607868C7
:102CC000FFF7A2FF034618460837BD4680BD80B413
:102CD00085B000AF78600023FB737B6893F82130E8
:102CE000DBB2022B08D07B6804229A637B68002247
:102CF00083F82020012320E07B681B681A687B682A
:102D00001B6822F00E021A607B681B681A687B68D9
:102D10001B6822F001021A607B681A6C7B68DB6B0F
:102D2000012101FA02F25A607B68012283F8212016
:102D30007B68002283F82020FB7B18461437BD46B1
:102D400080BC704780B584B000AF78600023FB730F
:102D50007B6893F82130DBB2022B05D07B6804221C
:102D60009A630123FB7351E07B681B681A687B68D8
:102D70001B6822F00E021A607B681B681A687B6869
:102D80001B6822F001021A607B681B68224A93428A
:102D900029D07B681B68214A934222D07B681B683C
:102DA0001F4A93421AD07B681B681E4A934212D076
:102DB0007B681B681C4A93420AD07B681B681B4ACD
:102DC000934202D14FF480130EE04FF080730BE07A
:102DD0004FF4803308E04FF4805305E04FF48073E4
:102DE00002E0102300E00123114A53607B680122B6
:102DF00083F821207B68002283F820207B685B6BAE
:102E0000002B03D07B685B6B78689847FB7B184688
:102E10001037BD4680BD00BF080002401C000240C4
:102E20003000024044000240580002406C00024062
:102E30000000024080B48BB000AF7860396000239E
:102E40007B6200233B6269E101227B6A02FA03F3A1
:102E5000FB613B681B68FA691340BB61BA69FB6997
:102E60009A4240F058813B685B689A4A93425ED030
:102E7000984A934275D8984A934258D0964A9342BA
:102E80006FD8964A934252D0944A934269D8944A52
:102E900093424CD0924A934263D8924A934246D08E
:102EA000904A93425DD8122B2AD8122B59D801A2EE
:102EB00052F823F02F2F0008092F00081B2F0008BD
:102EC0005D2F0008632F0008632F0008632F0008A0
:102ED000632F0008632F0008632F0008632F00088A
:102EE000632F0008632F0008632F0008632F00087A
:102EF000632F0008632F0008112F0008252F0008FA
:102F0000794A934213D02CE03B68DB683B6229E0AE
:102F10003B68DB6804333B6224E03B68DB680833D2
:102F20003B621FE03B68DB680C333B621AE03B68A6
:102F30009B68002B02D104233B6213E03B689B6833
:102F4000012B05D108233B627B68FA691A6109E00D
:102F500008233B627B68FA695A6103E000233B6205
:102F600000E000BFBB69FF2B01D87B6801E07B68F4
:102F700004337B61BB69FF2B02D87B6A9B0002E0B4
:102F80007B6A083B9B003B617B691A680F213B69A8
:102F900001FA03F3DB431A40396A3B6901FA03F390
:102FA0001A437B691A603B685B6803F08053002B0F
:102FB00000F0B1804D4B9B694C4A43F00103936193
:102FC0004A4B9B6903F00103BB60BB68484A7B6ABC
:102FD0009B08023352F82330FB607B6A03F0030343
:102FE0009B000F2202FA03F3DB43FA681340FB60F5
:102FF0007B68404A934213D07B683F4A93420DD08E
:103000007B683E4A934207D07B683D4A934201D198
:10301000032306E0042304E0022302E0012300E08E
:1030200000237A6A02F0030292009340FA68134385
:10303000FB602F497B6A9B080233FA6841F8232022
:103040003B685B6803F48013002B06D02D4B9A6815
:103050002C49BB6913438B6006E02A4B9A68BB6915
:10306000DB43284913408B603B685B6803F4001323
:10307000002B06D0234BDA682249BB691343CB608F
:1030800006E0204BDA68BB69DB431E491340CB6086
:103090003B685B6803F40033002B06D0194B5A6879
:1030A0001849BB6913434B6006E0164B5A68BB696D
:1030B000DB43144913404B603B685B6803F4803387
:1030C000002B21D00F4B1A680E49BB6913430B60CC
:1030D00021E000BF0000321000003110000022107B
:1030E000000021100000121000001110001002401A
:1030F0000000014000080140000C014000100140A8
:1031000000140140000401400B4B1A68BB69DB430B
:10311000094913400B607B6A01337B623B681A6884
:103120007B6A22FA03F3002B7FF48EAE00BF00BF50
:103130002C37BD4680BC70470004014080B485B088
:1031400000AF78600B467B807B689A687B88134071
:10315000002B02D00123FB7301E00023FB73FB7BF8
:1031600018461437BD4680BC704780B483B000AFAA
:1031700078600B467B8013467B707B78002B03D0F6
:103180007A887B681A6103E07B881A047B681A617D
:1031900000BF0C37BD4680BC7047000080B584B0CE
:1031A00000AF78607B68002B01D101232BE17B68A5
:1031B00093F83D30DBB2002B06D17B68002283F808
:1031C0003C207868FEF788FF7B68242283F83D2046
:1031D0007B681B681A687B681B6822F001021A6012
:1031E0007B681B681A687B681B6842F400421A609F
:1031F0007B681B681A687B681B6822F400421A60AF
:1032000001F07CFDF8607B685B68814A934207D8D7
:10321000FB68804A934294BF01230023DBB206E09F
:10322000FB687D4A934294BF01230023DBB2002B4D
:1032300001D00123E7E0FB68784AA2FB03239B0C43
:10324000BB607B681B685B6823F03F017B681B6881
:10325000BA680A435A607B681B681B6A23F03F0107
:103260007B685B686A4A934202D8BB68013309E015
:10327000BB684FF4967202FB03F3694AA2FB032377
:103280009B0901337A6812680B4313627B681B68E1
:10329000DB6923F44F4222F0FF027B685B685C49E4
:1032A0008B4219D8FB68591E7B685B685B00B1FBD9
:1032B000F3F3591C40F6FC730B40002B0AD0FB685B
:1032C000591E7B685B685B00B1FBF3F30133C3F30A
:1032D0000B0351E004234FE07B689B68002B11D166
:1032E000FB68581E7B6859680B465B000B44B0FBBB
:1032F000F3F30133C3F30B03002B0CBF01230023B3
:10330000DBB212E0FB68581E7B6859680B469B00D5
:103310000B4499000B44B0FBF3F30133C3F30B03ED
:10332000002B0CBF01230023DBB2002B01D00123B3
:1033300022E07B689B68002B0ED1FB68581E7B68DF
:1033400059680B465B000B44B0FBF3F30133C3F346
:103350000B0343F400430FE0FB68581E7B68596879
:103360000B469B000B4499000B44B0FBF3F3013375
:10337000C3F30B0343F44043796809681343CB61FB
:103380007B681B681B6823F0C0017B68DA697B6877
:103390001B6A1A437B681B680A431A607B681B68B8
:1033A0009B6823F4034323F0FF037A6811697A686A
:1033B000D26811437A6812680B4393607B681B687C
:1033C000DB6823F0FF017B685A697B689B691A43BD
:1033D0007B681B680A43DA607B681B681A687B6835
:1033E0001B6842F001021A607B6800221A647B6845
:1033F000202283F83D207B6800221A637B6800222C
:1034000083F83E20002318461037BD4680BD00BF1C
:10341000A08601007F841E00FF083D0083DE1B4361
:10342000D34D621080B588B002AFF8607A601A465A
:103430000B467B8113463B81FFF75EFA7861FB68A0
:1034400093F83D30DBB2202B40F0E0807B690093A5
:10345000192301227049F86800F050FE0346002B42
:1034600001D00223D3E0FB6893F83C30012B01D15B
:103470000223CCE0FB68012283F83C20FB681B6838
:103480001B6803F00103012B07D0FB681B681A6857
:10349000FB681B6842F001021A60FB681B681A682F
:1034A000FB681B6822F400621A60FB68212283F823
:1034B0003D20FB68102283F83E20FB6800221A643E
:1034C000FB687A685A62FB683A895A85FB685B8DAB
:1034D0009AB2FB681A85FB68504ADA6279897B697F
:1034E0003A6AF86800F00AFC0346002B01D0012379
:1034F0008DE000233B61FB681B685B693B61FB68F7
:103500001B689B693B613B6966E07A69396AF868C8
:1035100000F00EFF0346002B0DD0FB681B6C042B44
:1035200007D1FB681B681A68FB681B6842F40072CD
:103530001A6001236BE0FB685B6A1A78FB681B6802
:103540001A61FB685B6A5A1CFB685A62FB685B8DF8
:103550009BB2013B9AB2FB685A85FB681B8D013B0D
:103560009AB2FB681A85FB681B685B6903F0040369
:10357000042B1BD1FB681B8D002B17D0FB685B6AEB
:103580001A78FB681B681A61FB685B6A5A1CFB6847
:103590005A62FB685B8D9BB2013B9AB2FB685A850D
:1035A000FB681B8D013B9AB2FB681A857A69396A00
:1035B000F86800F005FF0346002B0DD0FB681B6C7C
:1035C000042B07D1FB681B681A68FB681B6842F470
:1035D00000721A6001231AE0FB681B8D002B94D146
:1035E000FB681B681A68FB681B6842F400721A606B
:1035F000FB68202283F83D20FB68002283F83E20F0
:10360000FB68002283F83C20002300E002231846D8
:103610001837BD4680BD00BF020010000000FFFF4C
:1036200080B588B002AFF860084611461A460346D6
:103630007B810B463B811346FB80FFF75DF9786188
:10364000FB6893F83D30DBB2202B40F0D9807B69DA
:103650000093192301226D49F86800F04FFD0346DD
:10366000002B01D00223CCE0FB6893F83C30012B07
:1036700001D10223C5E0FB68012283F83C20FB68EE
:103680001B681B6803F00103012B07D0FB681B6854
:103690001A68FB681B6842F001021A60FB681B682D
:1036A0001A68FB681B6822F400621A60FB6821221A
:1036B00083F83D20FB68402283F83E20FB6800220F
:1036C0001A64FB683A6A5A62FB68BA8C5A85FB68CE
:1036D0005B8D9AB2FB681A85FB684D4ADA62F888FE
:1036E0003A8979897B690193BB6A00930346F8683C
:1036F00000F086FB0346002B52D0012381E07A695B
:10370000B96AF86800F014FE0346002B0DD0FB6880
:103710001B6C042B07D1FB681B681A68FB681B68CD
:1037200042F400721A6001236BE0FB685B6A1A784E
:10373000FB681B681A61FB685B6A5A1CFB685A626B
:10374000FB681B8D013B9AB2FB681A85FB685B8D99
:103750009BB2013B9AB2FB685A85FB681B685B69A8
:1037600003F00403042B1BD1FB681B8D002B17D027
:10377000FB685B6A1A78FB681B681A61FB685B6A06
:103780005A1CFB685A62FB681B8D013B9AB2FB68AE
:103790001A85FB685B8D9BB2013B9AB2FB685A8528
:1037A000FB681B8D002BAAD17A69B96AF86800F012
:1037B00007FE0346002B0DD0FB681B6C042B07D1C2
:1037C000FB681B681A68FB681B6842F400721A6089
:1037D000012316E0FB681B681A68FB681B6842F44B
:1037E00000721A60FB68202283F83D20FB680022EB
:1037F00083F83E20FB68002283F83C20002300E091
:10380000022318461837BD4680BD00BF02001000D5
:103810000000FFFF80B58CB002AFF860084611468B
:103820001A4603467B810B463B811346FB800023EF
:103830003B62FFF761F87862FB6893F83D30DBB2DA
:10384000202B40F050827B6A009319230122824989
:10385000F86800F053FC0346002B01D0022343E23A
:10386000FB6893F83C30012B01D102233CE2FB685A
:10387000012283F83C20FB681B681B6803F00103EE
:10388000012B07D0FB681B681A68FB681B6842F0B5
:1038900001021A60FB681B681A68FB681B6822F447
:1038A00000621A60FB68222283F83D20FB684022F8
:1038B00083F83E20FB6800221A64FB683A6B5A6268
:1038C000FB68BA8E5A85FB685B8D9AB2FB681A85D5
:1038D000FB68624ADA62F8883A8979897B6A0193DF
:1038E000BB6B00930346F86800F020FB0346002BF7
:1038F00001D00123F8E1FB681B8D002B13D10023BD
:10390000FB61FB681B685B69FB61FB681B689B696B
:10391000FB61FB69FB681B681A68FB681B6842F463
:1039200000721A60CCE1FB681B8D012B1ED1FB6875
:103930001B681A68FB681B6822F480621A6072B602
:1039400000BF0023BB61FB681B685B69BB61FB6850
:103950001B689B69BB61BB69FB681B681A68FB68D5
:103960001B6842F400721A6062B635E0FB681B8D7A
:10397000022B1ED1FB681B681A68FB681B6842F4A7
:1039800000621A6072B600BF00237B61FB681B688F
:103990005B697B61FB681B689B697B617B69FB687A
:1039A0001B681A68FB681B6822F480621A6062B6A2
:1039B00012E0FB681B681A68FB681B6842F48062AF
:1039C0001A6000233B61FB681B685B693B61FB6815
:1039D0001B689B693B613B6972E1FB681B8D032B94
:1039E00000F21F81FB681B8D012B23D17A6AB96B12
:1039F000F86800F02DFD0346002B01D0012373E190
:103A0000FB681B681A69FB685B6AD2B21A70FB68B4
:103A10005B6A5A1CFB685A62FB681B8D013B9AB2B9
:103A2000FB681A85FB685B8D9BB2013B9AB2FB6811
:103A30005A8545E1FB681B8D022B52D17B6A0093AE
:103A4000BB6B00220649F86800F058FB0346002BC8
:103A500008D0012348E100BF020010000000FFFF72
:103A60000400010072B600BFFB681B681A68FB689F
:103A70001B6842F400721A60FB681B681A69FB68D5
:103A80005B6AD2B21A70FB685B6A5A1CFB685A62A6
:103A9000FB681B8D013B9AB2FB681A85FB685B8D46
:103AA0009BB2013B9AB2FB685A8562B600BFFB68C5
:103AB0001B681A69FB685B6AD2B21A70FB685B6AA2
:103AC0005A1CFB685A62FB681B8D013B9AB2FB686B
:103AD0001A85FB685B8D9BB2013B9AB2FB685A85E5
:103AE000EEE07B6A0093BB6B00228149F86800F02E
:103AF00005FB0346002B01D00123F5E0FB681B68A2
:103B00001A68FB681B6822F480621A6072B600BFF4
:103B1000FB681B681A69FB685B6AD2B21A70FB68A3
:103B20005B6A5A1CFB685A62FB681B8D013B9AB2A8
:103B3000FB681A85FB685B8D9BB2013B9AB2FB6800
:103B40005A856C4B1B68DB086B4AA2FB03231A0ADD
:103B500013469B001344DA00D31A3B623B6A013BD5
:103B60003B623B6A002B18D1FB6800221A63FB689A
:103B7000202283F83D20FB68002283F83E20FB686A
:103B80001B6C43F02002FB681A6462B600BFFB683E
:103B9000002283F83C200123A6E0FB681B685B69D8
:103BA00003F00403042BD9D1FB681B681A68FB6877
:103BB0001B6842F400721A60FB681B681A69FB6894
:103BC0005B6AD2B21A70FB685B6A5A1CFB685A6265
:103BD000FB681B8D013B9AB2FB681A85FB685B8D05
:103BE0009BB2013B9AB2FB685A8562B600BFFB6884
:103BF0001B681A69FB685B6AD2B21A70FB685B6A61
:103C00005A1CFB685A62FB681B8D013B9AB2FB6829
:103C10001A85FB685B8D9BB2013B9AB2FB685A85A3
:103C20004EE07A6AB96BF86800F012FC0346002B8C
:103C300001D0012358E0FB681B681A69FB685B6AC6
:103C4000D2B21A70FB685B6A5A1CFB685A62FB6846
:103C50001B8D013B9AB2FB681A85FB685B8D9BB29A
:103C6000013B9AB2FB685A85FB681B685B6903F0ED
:103C70000403042B24D1FB681B8D032B07D1FB68A5
:103C80001B681A68FB681B6822F480621A60FB6874
:103C90001B681A69FB685B6AD2B21A70FB685B6AC0
:103CA0005A1CFB685A62FB681B8D013B9AB2FB6889
:103CB0001A85FB685B8D9BB2013B9AB2FB685A8503
:103CC000FB681B8D002B7FF488AEFB68202283F8F5
:103CD0003D20FB68002283F83E20FB68002283F829
:103CE0003C20002300E0022318462837BD4680BD53
:103CF000040001003000002089B5F81480B588B0B8
:103D000002AFF8607A603B600B467B81FB68DB6A40
:103D10007B617B69082B06D07B69012B03D07B6913
:103D200013F5803F08D1FB681B681A68FB681B68A5
:103D300042F480721A600BE0FB681B6B122B07D1F8
:103D4000FB681B681A68FB681B6842F480721A6083
:103D50003B6800937B6800224FF00111F86800F087
:103D6000CDF90346002B0DD0FB681B681B6803F4DC
:103D70008073B3F5807F03D1FB684FF400721A643F
:103D8000032335E0FB681B69B3F5804F08D17B89BD
:103D9000DBB21A46FB681B6802F0FE021A611BE0E8
:103DA0007B89DB11DBB203F00603DBB263F00F03A8
:103DB000DAB2FB681B681A613B687A680E49F868DA
:103DC00000F016FA0346002B01D0012310E07B8996
:103DD000DAB2FB681B681A613B687A680749F868C1
:103DE00000F006FA0346002B01D0012300E0002377
:103DF00018461837BD4680BD0800010002000100CA
:103E000080B588B002AFF860084611461A460346EE
:103E10007B810B463B811346FB80FB681B681A685D
:103E2000FB681B6842F480721A607B6A00933B6AED
:103E300000224FF00111F86800F060F90346002BF2
:103E40000DD0FB681B681B6803F48073B3F5807F9B
:103E500003D1FB684FF400721A6403235FE07B898F
:103E6000DBB21A46FB681B6802F0FE021A617B6A2D
:103E70003A6A2D49F86800F0BBF90346002B01D0DF
:103E800001234CE000237B61FB681B685B697B615D
:103E9000FB681B689B697B617B697A6A396AF86891
:103EA00000F046FA0346002B0DD0FB681B6C042B78
:103EB00007D1FB681B681A68FB681B6842F4007234
:103EC0001A6001232BE0FB88012B05D13B89DAB274
:103ED000FB681B681A6121E03B891B0A9BB2DAB2BE
:103EE000FB681B681A617A6A396AF86800F020FA80
:103EF0000346002B0DD0FB681B6C042B07D1FB681D
:103F00001B681A68FB681B6842F400721A60012380
:103F100005E03B89DAB2FB681B681A61002318468A
:103F20001837BD4680BD00BF0200010080B588B0D3
:103F300002AFF860084611461A4603467B810B46DD
:103F40003B811346FB80FB681B681A68FB681B6893
:103F500042F480621A60FB681B681A68FB681B6881
:103F600042F480721A607B6A00933B6A00224FF031
:103F70000111F86800F0C2F80346002B0DD0FB6871
:103F80001B681B6803F48073B3F5807F03D1FB6863
:103F90004FF400721A640323AAE07B89DBB21A464D
:103FA000FB681B6802F0FE021A617B6A3A6A52499A
:103FB000F86800F01DF90346002B01D0012397E0BB
:103FC00000237B61FB681B685B697B61FB681B6886
:103FD0009B697B617B697A6A396AF86800F0A8F9A5
:103FE0000346002B0DD0FB681B6C042B07D1FB682C
:103FF0001B681A68FB681B6842F400721A60012390
:1040000076E0FB88012B05D13B89DAB2FB681B689F
:104010001A6121E03B891B0A9BB2DAB2FB681B687C
:104020001A617A6A396AF86800F082F90346002B4F
:104030000DD0FB681B6C042B07D1FB681B681A684A
:10404000FB681B6842F400721A60012350E03B8950
:10405000DAB2FB681B681A617A6A396AF86800F09C
:1040600067F90346002B0DD0FB681B6C042B07D1AE
:10407000FB681B681A68FB681B6842F400721A60D0
:10408000012335E0FB681B681A68FB681B6842F473
:1040900080721A607B6A00933B6A00224FF0011124
:1040A000F86800F02BF80346002B0DD0FB681B6866
:1040B0001B6803F48073B3F5807F03D1FB684FF472
:1040C00000721A64032313E07B89DBB243F001031F
:1040D000DAB2FB681B681A617B6A3A6A0649F868BB
:1040E00000F086F80346002B01D0012300E00023F6
:1040F00018461837BD4680BD0200010080B584B067
:1041000000AFF860B9603B601346FB7148E03B6864
:10411000B3F1FF3F44D0FEF7EFFB0246BB69D31A71
:104120003A689A4202D33B68002B39D1BB681B0C1A
:10413000DBB2012B0DD1FB681B685B69DA43BB68FE
:1041400013409BB2002B0CBF01230023DBB21A46A5
:104150000CE0FB681B689B69DA43BB6813409BB2A9
:10416000002B0CBF01230023DBB21A46FB799A42D5
:1041700016D1FB6800221A63FB68202283F83D20D9
:10418000FB68002283F83E20FB681B6C43F0200292
:10419000FB681A64FB68002283F83C20012323E0BB
:1041A000BB681B0CDBB2012B0DD1FB681B685B6984
:1041B000DA43BB6813409BB2002B0CBF01230023E2
:1041C000DBB21A460CE0FB681B689B69DA43BB68EC
:1041D00013409BB2002B0CBF01230023DBB21A4615
:1041E000FB799A4293D0002318461037BD4680BD14
:1041F00080B584B000AFF860B9607A603B6071E070
:10420000FB681B685B6903F48063B3F5806F23D19F
:10421000FB681B681A68FB681B6842F400721A602E
:10422000FB681B686FF480625A61FB6800221A63A6
:10423000FB68202283F83D20FB68002283F83E20A3
:10424000FB681B6C43F00402FB681A64FB680022E5
:1042500083F83C20012367E07B68B3F1FF3F41D046
:10426000FEF74AFB02463B68D31A7A689A4202D3A9
:104270007B68002B36D1BB681B0CDBB2012B0CD149
:10428000FB681B685B69DA43BB6813409BB2002B79
:1042900014BF01230023DBB20BE0FB681B689B69A2
:1042A000DA43BB6813409BB2002B14BF01230023E9
:1042B000DBB2002B16D0FB6800221A63FB682022B9
:1042C00083F83D20FB68002283F83E20FB681B6CCE
:1042D00043F02002FB681A64FB68002283F83C204C
:1042E000012321E0BB681B0CDBB2012B0CD1FB6866
:1042F0001B685B69DA43BB6813409BB2002B14BF99
:1043000001230023DBB20BE0FB681B689B69DA43E7
:10431000BB6813409BB2002B14BF01230023DBB208
:10432000002B7FF46DAF002318461037BD4680BDCB
:1043300080B584B000AFF860B9607A6034E0F868A6
:1043400000F0E3F80346002B01D0012334E0BB6802
:10435000B3F1FF3F28D0FEF7CFFA02467B68D31AAD
:10436000BA689A4202D3BB68002B1DD1FB681B6858
:104370005B6903F08003802B16D0FB6800221A6370
:10438000FB68202283F83D20FB68002283F83E2052
:10439000FB681B6C43F02002FB681A64FB68002278
:1043A00083F83C20012307E0FB681B685B6903F08E
:1043B0008003802BC3D1002318461037BD4680BD33
:1043C00080B584B000AFF860B9607A6034E0F86816
:1043D00000F09BF80346002B01D0012334E0BB68BA
:1043E000B3F1FF3F28D0FEF787FA02467B68D31A65
:1043F000BA689A4202D3BB68002B1DD1FB681B68C8
:104400005B6903F00403042B16D0FB6800221A63D7
:10441000FB68202283F83D20FB68002283F83E20C1
:10442000FB681B6C43F02002FB681A64FB680022E7
:1044300083F83C20012307E0FB681B685B6903F0FD
:104440000403042BC3D1002318461037BD4680BD9A
:1044500080B584B000AFF860B9607A6049E0FB686D
:104460001B685B6903F01003102B19D1FB681B68F4
:104470006FF010025A61FB6800221A63FB68202269
:1044800083F83D20FB68002283F83E20FB681A6C0D
:10449000FB681A64FB68002283F83C20012330E0AB
:1044A000FEF72AFA02467B68D31ABA689A4202D308
:1044B000BB68002B1DD1FB681B685B6903F04003E0
:1044C000402B16D0FB6800221A63FB68202283F879
:1044D0003D20FB68002283F83E20FB681B6C43F004
:1044E0002002FB681A64FB68002283F83C20012349
:1044F00007E0FB681B685B6903F04003402BAED10B
:10450000002318461037BD4680BD80B483B000AF8D
:1045100078607B681B685B6903F48063B3F5806F28
:104520001BD17B681B686FF480625A617B68002234
:104530001A637B68202283F83D207B68002283F881
:104540003E207B681B6C43F004027B681A647B6826
:10455000002283F83C20012300E0002318460C379A
:10456000BD4680BC7047000080B586B000AF786063
:104570007B68002B01D1012372E27B681B6803F08A
:104580000103002B00F08780924B5B6803F00C0363
:10459000042B0CD08F4B5B6803F00C03082B12D15B
:1045A0008C4B5B6803F48033B3F5803F0BD1894BB0
:1045B0001B6803F40033002B6CD07B685B68002B16
:1045C00068D101234CE27B685B68B3F5803F06D17C
:1045D000804B1B687F4A43F4803313602EE07B6876
:1045E0005B68002B0CD17B4B1B687A4A23F4803329
:1045F0001360784B1B68774A23F4802313601DE017
:104600007B685B68B3F5A02F0CD1724B1B68714AB5
:1046100043F4802313606F4B1B686E4A43F480336E
:1046200013600BE06B4B1B686A4A23F48033136002
:10463000684B1B68674A23F4802313607B685B68C0
:10464000002B13D0FEF758F9386108E0FEF754F953
:1046500002463B69D31A642B01D9032300E25D4B68
:104660001B6803F40033002BF0D014E0FEF744F98C
:10467000386108E0FEF740F902463B69D31A642B23
:1046800001D90323ECE1534B1B6803F40033002BE7
:10469000F0D100E000BF7B681B6803F00203002B31
:1046A00063D04C4B5B6803F00C03002B0BD0494BE1
:1046B0005B6803F00C03082B1CD1464B5B6803F4CA
:1046C0008033002B16D1434B1B6803F00203002BF1
:1046D00005D07B681B69012B01D00123C0E13D4B54
:1046E0001B6823F0F8027B685B69DB0039491343E0
:1046F0000B603AE07B681B69002B20D0364B01220F
:104700001A60FEF7F9F8386108E0FEF7F5F802469E
:104710003B69D31A022B01D90323A1E12D4B1B685E
:1047200003F00203002BF0D02A4B1B6823F0F802A1
:104730007B685B69DB00274913430B6015E0264B60
:1047400000221A60FEF7D8F8386108E0FEF7D4F8C6
:1047500002463B69D31A022B01D9032380E11D4B8A
:104760001B6803F00203002BF0D17B681B6803F089
:104770000803002B3AD07B689B69002B19D0174B9C
:1047800001221A60FEF7B8F8386108E0FEF7B4F8C5
:1047900002463B69D31A022B01D9032360E10D4B7A
:1047A0005B6A03F00203002BF0D0012000F0CEFA88
:1047B0001CE00A4B00221A60FEF79EF838610FE0F9
:1047C000FEF79AF802463B69D31A022B08D9032355
:1047D00046E100BF00100240000042428004424215
:1047E000924B5B6A03F00203002BE9D17B681B68E4
:1047F00003F00403002B00F0A6800023FB758B4B15
:10480000DB6903F08053002B0DD1884BDB69874AAD
:1048100043F08053D361854BDB6903F08053BB6069
:10482000BB680123FB75824B1B6803F48073002B6C
:1048300018D17F4B1B687E4A43F480731360FEF7E8
:104840005BF8386108E0FEF757F802463B69D31A77
:10485000642B01D9032303E1754B1B6803F48073B8
:10486000002BF0D07B68DB68012B06D16F4B1B6AF5
:104870006E4A43F0010313622DE07B68DB68002B76
:104880000CD16A4B1B6A694A23F001031362674B20
:104890001B6A664A23F0040313621CE07B68DB6832
:1048A000052B0CD1614B1B6A604A43F00403136271
:1048B0005E4B1B6A5D4A43F0010313620BE05B4BE6
:1048C0001B6A5A4A23F001031362584B1B6A574A6A
:1048D00023F0040313627B68DB68002B15D0FEF71E
:1048E0000BF838610AE0FEF707F802463B69D31A75
:1048F00041F28832934201D90323B1E04B4B1B6A4A
:1049000003F00203002BEED014E0FDF7F5FF386151
:104910000AE0FDF7F1FF02463B69D31A41F2883203
:10492000934201D903239BE0404B1B6A03F002032F
:10493000002BEED1FB7D012B05D13C4BDB693B4AC3
:1049400023F08053D3617B68DB69002B00F0878004
:10495000364B5B6803F00C03082B61D07B68DB6986
:10496000022B46D1334B00221A60FDF7C5FF386198
:1049700008E0FDF7C1FF02463B69D31A022B01D9BB
:1049800003236DE0294B1B6803F00073002BF0D16B
:104990007B681B6AB3F5803F08D1244B5B6823F426
:1049A00000327B689B68214913434B601F4B5B6857
:1049B00023F474127B68196A7B685B6A0B431B499A
:1049C00013434B601B4B01221A60FDF795FF3861C2
:1049D00008E0FDF791FF02463B69D31A022B01D98B
:1049E00003233DE0114B1B6803F00073002BF0D054
:1049F00035E0104B00221A60FDF77EFF386108E0B9
:104A0000FDF77AFF02463B69D31A022B01D9032333
:104A100026E0064B1B6803F00073002BF0D11EE06C
:104A20007B68DB69012B07D1012319E000100240EC
:104A300000700040600042420B4B5B68FB60FB680B
:104A400003F480327B681B6A9A4206D1FB6803F448
:104A500070127B685B6A9A4201D0012300E0002358
:104A600018461837BD4680BD0010024080B584B09E
:104A700000AF786039607B68002B01D10123D0E062
:104A80006A4B1B6803F007033A689A4210D9674BD8
:104A90001B6823F0070265493B6813430B60634BB7
:104AA0001B6803F007033A689A4201D00123B8E07B
:104AB0007B681B6803F00203002B20D07B681B6817
:104AC00003F00403002B05D0594B5B68584A43F4AC
:104AD000E06353607B681B6803F00803002B05D07C
:104AE000534B5B68524A43F460535360504B5B68CE
:104AF00023F0F0027B689B684D4913434B607B6851
:104B00001B6803F00103002B40D07B685B68012B1E
:104B100007D1474B1B6803F40033002B15D1012349
:104B20007FE07B685B68022B07D1414B1B6803F079
:104B30000073002B09D1012373E03D4B1B6803F088
:104B40000203002B01D101236BE0394B5B6823F09A
:104B500003027B685B68364913434B60FDF7CCFE6C
:104B6000F8600AE0FDF7C8FE0246FB68D31A41F27E
:104B70008832934201D9032353E02D4B5B6803F045
:104B80000C027B685B689B009A42EBD1274B1B6849
:104B900003F007033A689A4210D2244B1B6823F0B3
:104BA000070222493B6813430B60204B1B6803F04C
:104BB00007033A689A4201D0012332E07B681B6800
:104BC00003F00403002B08D0194B5B6823F4E06268
:104BD0007B68DB68164913434B607B681B6803F0F6
:104BE0000803002B09D0124B5B6823F460527B68EA
:104BF0001B69DB000E4913434B6000F021F80246AD
:104C00000B4B5B681B0903F00F030A49CB5C22FACC
:104C100003F3094A1360094B1B681846FDF72AFE87
:104C2000002318461037BD4680BD00BF002002405B
:104C30000010024000B300083000002034000020C3
:104C400080B487B000AF0023FB600023BB6000236B
:104C50007B6100237B6000233B611E4B5B68FB6034
:104C6000FB6803F00C03042B02D0082B03D027E0D1
:104C7000194B3B6127E0FB689B0C03F00F03174ABD
:104C8000D35C7B60FB6803F48033002B10D0114BA6
:104C90005B685B0C03F00103114AD35CBB607B686B
:104CA0000D4A03FB02F2BB68B2FBF3F37B6104E045
:104CB0007B680C4A02FB03F37B617B693B6102E08A
:104CC000054B3B6100BF3B6918461C37BD4680BCA5
:104CD000704700BF0010024000127A0018B30008AD
:104CE00028B3000800093D0080B400AF024B1B68E8
:104CF0001846BD4680BC70473000002080B500AF2C
:104D0000FFF7F2FF0246054B5B681B0A03F007033F
:104D10000349CB5C22FA03F3184680BD0010024021
:104D200010B3000880B500AFFFF7DEFF0246054B69
:104D30005B68DB0A03F007030349CB5C22FA03F349
:104D4000184680BD0010024010B3000880B485B042
:104D500000AF78600A4B1B680A4AA2FB03235B0A78
:104D60007A6802FB03F3FB6000BFFB685A1EFA601F
:104D7000002BF9D100BF00BF1437BD4680BC70477F
:104D800030000020D34D621080B582B000AF786053
:104D90007B68002B01D1012341E07B6893F83D3013
:104DA000DBB2002B06D17B68002283F83C207868B8
:104DB000FDF7D0F97B68022283F83D207B681A68F2
:104DC0007B6804331946104600F04EFC7B680122D4
:104DD00083F846207B68012283F83E207B6801220D
:104DE00083F83F207B68012283F840207B68012202
:104DF00083F841207B68012283F842207B680122EE
:104E000083F843207B68012283F844207B680122D9
:104E100083F845207B68012283F83D200023184653
:104E20000837BD4680BD000080B485B000AF786013
:104E30007B6893F83D30DBB2012B01D001233AE0CF
:104E40007B68022283F83D207B681B68DA687B68F8
:104E50001B6842F00102DA607B681B68184A9342C3
:104E60000ED07B681B68B3F1804F09D07B681B684C
:104E7000144A934204D07B681B68134A934211D1B1
:104E80007B681B689B6803F00703FB60FB68062BCD
:104E900010D07B681B681A687B681B6842F00102AF
:104EA0001A6007E07B681B681A687B681B6842F021
:104EB00001021A60002318461437BD4680BC7047B3
:104EC000002C0140000400400008004080B483B082
:104ED00000AF78607B681B68DA687B681B6822F02B
:104EE0000102DA607B681B681A6A41F211131340F1
:104EF000002B0FD17B681B681A6A40F244431340B1
:104F0000002B07D17B681B681A687B681B6822F03E
:104F100001021A607B68012283F83D2000231846B5
:104F20000C37BD4680BC704780B582B000AF78605A
:104F30007B68002B01D1012341E07B6893F83D3071
:104F4000DBB2002B06D17B68002283F83C20786816
:104F500000F039F87B68022283F83D207B681A68EC
:104F60007B6804331946104600F07EFB7B68012203
:104F700083F846207B68012283F83E207B6801226B
:104F800083F83F207B68012283F840207B68012260
:104F900083F841207B68012283F842207B6801224C
:104FA00083F843207B68012283F844207B68012238
:104FB00083F845207B68012283F83D2000231846B2
:104FC0000837BD4680BD80B483B000AF786000BFB5
:104FD0000C37BD4680BC704780B584B000AF7860A8
:104FE00039603B68002B09D17B6893F83E30DBB217
:104FF000012B14BF01230023DBB222E03B68042B0A
:1050000009D17B6893F83F30DBB2012B14BF012339
:105010000023DBB215E03B68082B09D17B6893F8CD
:105020004030DBB2012B14BF01230023DBB208E0C8
:105030007B6893F84130DBB2012B14BF01230023BE
:10504000DBB2002B01D001235EE03B68002B04D1D2
:105050007B68022283F83E2013E03B68042B04D1D6
:105060007B68022283F83F200BE03B68082B04D1C9
:105070007B68022283F8402003E07B68022283F8E9
:1050800041207B681B6801223968184600F078FDD2
:105090007B681B681E4A934207D17B681B685A6C69
:1050A0007B681B6842F400425A647B681B68184A9C
:1050B00093420ED07B681B68B3F1804F09D07B68A8
:1050C0001B68144A934204D07B681B68124A9342BF
:1050D00011D17B681B689B6803F00703FB60FB68CA
:1050E000062B10D07B681B681A687B681B6842F02F
:1050F00001021A6007E07B681B681A687B681B68FE
:1051000042F001021A60002318461037BD4680BDE8
:10511000002C0140000400400008004080B584B02D
:1051200000AF78607B681B68DB68FB607B681B688E
:105130001B69BB60BB6803F00203002B20D0FB6837
:1051400003F00203002B1BD07B681B686FF0020288
:105150001A617B6801221A777B681B689B6903F0E0
:105160000303002B03D0786800F063FA05E0786849
:1051700000F056FA786800F065FA7B6800221A772A
:10518000BB6803F00403002B20D0FB6803F004038A
:10519000002B1BD07B681B686FF004021A617B68D0
:1051A00002221A777B681B689B6903F44073002B0B
:1051B00003D0786800F03DFA05E0786800F030FA36
:1051C000786800F03FFA7B6800221A77BB6803F02A
:1051D0000803002B20D0FB6803F00803002B1BD032
:1051E0007B681B686FF008021A617B6804221A77DB
:1051F0007B681B68DB6903F00303002B03D078682E
:1052000000F017FA05E0786800F00AFA786800F014
:1052100019FA7B6800221A77BB6803F01003002B91
:1052200020D0FB6803F01003002B1BD07B681B68A9
:105230006FF010021A617B6808221A777B681B687E
:10524000DB6903F44073002B03D0786800F0F1F9B8
:1052500005E0786800F0E4F9786800F0F3F97B681D
:1052600000221A77BB6803F00103002B0CD0FB6807
:1052700003F00103002B07D07B681B686FF001026D
:105280001A61786800F0C3F9BB6803F08003002B53
:105290000CD0FB6803F08003002B07D07B681B68F1
:1052A0006FF080021A61786800F046FDBB6803F079
:1052B0004003002B0CD0FB6803F04003002B07D009
:1052C0007B681B686FF040021A61786800F0C3F9D0
:1052D000BB6803F02003002B0CD0FB6803F0200315
:1052E000002B07D07B681B686FF020021A6178687A
:1052F00000F019FD00BF1037BD4680BD80B586B0F7
:1053000000AFF860B9607A600023FB75FB6893F822
:105310003C30012B01D10223AEE0FB68012283F86F
:105320003C207B680C2B00F29F8001A252F823F0F6
:10533000655300086954000869540008695400085E
:10534000A55300086954000869540008695400080E
:10535000E7530008695400086954000869540008BC
:1053600027540008FB681B68B968184600F0EAF982
:10537000FB681B689A69FB681B6842F008029A6127
:10538000FB681B689A69FB681B6822F004029A613B
:10539000FB681B689969BB681A69FB681B680A434C
:1053A0009A6164E0FB681B68B968184600F030FA3F
:1053B000FB681B689A69FB681B6842F400629A618B
:1053C000FB681B689A69FB681B6822F480629A611B
:1053D000FB681B689969BB681B691A02FB681B683C
:1053E0000A439A6143E0FB681B68B968184600F0FD
:1053F00079FAFB681B68DA69FB681B6842F00802EF
:10540000DA61FB681B68DA69FB681B6822F004023A
:10541000DA61FB681B68D969BB681A69FB681B689D
:105420000A43DA6123E0FB681B68B968184600F09C
:10543000C3FAFB681B68DA69FB681B6842F4006208
:10544000DA61FB681B68DA69FB681B6822F480621A
:10545000DA61FB681B68D969BB681B691A02FB68C3
:105460001B680A43DA6102E00123FB7500BFFB6899
:10547000002283F83C20FB7D18461837BD4680BDCE
:1054800080B584B000AF786039600023FB737B681F
:1054900093F83C30012B01D10223B4E07B68012258
:1054A00083F83C207B68022283F83D207B681B68E0
:1054B0009B68BB60BB6823F07703BB60BB6823F4C9
:1054C0007F43BB607B681B68BA689A603B681B6857
:1054D000B3F5005F3ED0B3F5005F00F28780B3F50F
:1054E000805F00F08680B3F5805F7FD8702B1AD084
:1054F000702B7BD8602B50D0602B77D8502B3CD0B2
:10550000502B73D8402B58D0402B6FD8302B64D001
:10551000302B6BD8202B60D0202B67D8002B5CD091
:10552000102B5AD062E07B6818683B6899683B682A
:105530005A683B68DB6800F004FB7B681B689B686B
:10554000BB60BB6843F07703BB607B681B68BA68CD
:105550009A604FE07B6818683B6899683B685A68B6
:105560003B68DB6800F0EDFA7B681B689A687B6833
:105570001B6842F480429A603CE07B6818683B6894
:1055800059683B68DB681A4600F064FA7B681B6860
:105590005021184600F0BBFA2CE07B6818683B6885
:1055A00059683B68DB681A4600F082FA7B681B6822
:1055B0006021184600F0ABFA1CE07B6818683B6875
:1055C00059683B68DB681A4600F044FA7B681B6840
:1055D0004021184600F09BFA0CE07B681A683B6893
:1055E0001B681946104600F092FA03E00123FB7392
:1055F00000E000BF7B68012283F83D207B68002229
:1056000083F83C20FB7B18461037BD4680BD80B434
:1056100083B000AF786000BF0C37BD4680BC7047D8
:1056200080B483B000AF786000BF0C37BD4680BC4B
:10563000704780B483B000AF786000BF0C37BD46C0
:1056400080BC704780B483B000AF786000BF0C3777
:10565000BD4680BC704780B483B000AF786000BFA7
:105660000C37BD4680BC704780B485B000AF786011
:1056700039607B681B68FB607B682F4A93420BD0C4
:105680007B68B3F1804F07D07B682C4A934203D0EC
:105690007B682B4A934208D1FB6823F07003FB60C0
:1056A0003B685B68FA681343FB607B68224A93425D
:1056B0000BD07B68B3F1804F07D07B681F4A9342C1
:1056C00003D07B681E4A934208D1FB6823F44073E1
:1056D000FB603B68DB68FA681343FB60FB6823F000
:1056E00080023B685B691343FB607B68FA681A6061
:1056F0003B689A687B68DA623B681A687B689A62E2
:105700007B680D4A934203D13B681A697B681A6330
:105710007B6801225A617B681B6903F00103002B3F
:1057200005D07B681B6923F001027B681A6100BF0A
:105730001437BD4680BC7047002C01400004004077
:105740000008004080B487B000AF786039607B68A3
:105750001B6A7B617B681B6A23F001027B681A620B
:105760007B685B683B617B689B69FB60FB6823F03F
:105770007003FB60FB6823F00303FB603B681B685E
:10578000FA681343FB607B6923F002037B613B688B
:105790009B687A6913437B617B681C4A93420CD1F6
:1057A0007B6923F008037B613B68DB687A691343FC
:1057B0007B617B6923F004037B617B68134A93421E
:1057C00011D13B6923F480733B613B6923F400737F
:1057D0003B613B685B693A6913433B613B689B698A
:1057E0003A6913433B617B683A695A607B68FA689F
:1057F0009A613B685A687B685A637B687A691A6267
:1058000000BF1C37BD4680BC704700BF002C014064
:1058100080B487B000AF786039607B681B6A7B61B9
:105820007B681B6A23F010027B681A627B685B68E6
:105830003B617B689B69FB60FB6823F4E043FB6092
:10584000FB6823F44073FB603B681B681B02FA682B
:105850001343FB607B6923F020037B613B689B68FB
:105860001B017A6913437B617B681D4A93420DD10A
:105870007B6923F080037B613B68DB681B017A69ED
:1058800013437B617B6923F040037B617B68144A8F
:10589000934213D13B6923F480633B613B6923F45A
:1058A00000633B613B685B699B003A6913433B6162
:1058B0003B689B699B003A6913433B617B683A698B
:1058C0005A607B68FA689A613B685A687B689A6399
:1058D0007B687A691A6200BF1C37BD4680BC70477E
:1058E000002C014080B487B000AF786039607B68DD
:1058F0001B6A7B617B681B6A23F480727B681A6277
:105900007B685B683B617B68DB69FB60FB6823F05D
:105910007003FB60FB6823F00303FB603B681B68BC
:10592000FA681343FB607B6923F400737B613B6877
:105930009B681B027A6913437B617B681D4A934213
:105940000DD17B6923F400637B613B68DB681B023C
:105950007A6913437B617B6923F480637B617B6895
:10596000144A934213D13B6923F480533B613B6952
:1059700023F400533B613B685B691B013A691343A5
:105980003B613B689B691B013A6913433B617B6840
:105990003A695A607B68FA68DA613B685A687B68E2
:1059A000DA637B687A691A6200BF1C37BD4680BC27
:1059B000704700BF002C014080B487B000AF786012
:1059C00039607B681B6A3B617B681B6A23F48052E9
:1059D0007B681A627B685B687B617B68DB69FB6064
:1059E000FB6823F4E043FB60FB6823F44073FB6037
:1059F0003B681B681B02FA681343FB603B6923F496
:105A000000533B613B689B681B033A6913433B614E
:105A10007B680F4A934209D17B6923F480437B6101
:105A20003B685B699B017A6913437B617B687A6998
:105A30005A607B68FA68DA613B685A687B681A6466
:105A40007B683A691A6200BF1C37BD4680BC70474C
:105A5000002C014080B487B000AFF860B9607A6074
:105A6000FB681B6A7B61FB681B6A23F00102FB6811
:105A70001A62FB689B693B613B6923F0F0033B6161
:105A80007B681B013A6913433B617B6923F00A037E
:105A90007B617A69BB6813437B61FB683A699A61F1
:105AA000FB687A691A6200BF1C37BD4680BC70472C
:105AB00080B487B000AFF860B9607A60FB681B6A99
:105AC0007B61FB681B6A23F01002FB681A62FB68AB
:105AD0009B693B613B6923F470433B617B681B031B
