:020000040800F2
:10000000005000206D030008BD030008BD03000878
:10001000BD030008BD030008BD0300080000000088
:10002000000000000000000000000000BD03000808
:10003000BD03000800000000BD030008BD03000868
:10004000BD030008BD030008BD030008BD03000890
:10005000BD030008BD03000881060008A5060008CE
:10006000C9060008ED06000811070008BD030008D6
:10007000BD030008BD030008BD030008BD03000860
:10008000BD030008BD030008BD030008BD03000850
:10009000BD030008BD030008BD03000835070008C4
:1000A000BD03000825140008BD030008BD030008B7
:1000B0003D13000879130008F9130008BD03000878
:1000C000BD030008BD030008BD030008BD03000810
:1000D000BD030008C5150008D9150008ED15000876
:1000E000DD070008BD03000800000000BD03000894
:1000F000BD030008BD030008BD030008BD030008E0
:10010000BD030008BD030008BD030008BD030008CF
:10011000BD030008BD030008BD030008BD030008BF
:10012000BD030008BD030008BD030008BD030008AF
:1001300010B5054C237833B9044B13B10448AFF321
:1001400000800123237010BD240000200000000067
:100150004816000808B5034B1BB103490348AFF329
:10016000008008BD0000000028000020481600089C
:1001700080B500AF104B9B690F4A43F004039361B5
:100180000021002000F08CFB032201210B4800F02D
:1001900071F903220221094800F06CF903220321BE
:1001A000064800F067F903220421044800F062F9D0
:1001B00000F08CF800BF80BD001002400008014034
:1001C00080B584B002AF78600A4B009340F6AC5320
:1001D0007A680121084800F0EFFB064B009340F6D7
:1001E000AC537A680321044800F0E6FB00BF0837EF
:1001F000BD4680BD00512502002C014080B500AFF6
:1002000001220121094800F017FA002202210748C3
:1002100000F012FA01220321044800F00DFA002236
:100220000421024800F008FA00BF80BD0008014028
:1002300080B500AF00220121094800F0FDF901223C
:100240000221074800F0F8F900220321044800F0D9
:10025000F3F901220421024800F0EEF900BF80BD4D
:100260000008014080B500AF01220121094800F0DB
:10027000E3F900220221074800F0DEF90022032101
:10028000044800F0D9F901220421024800F0D4F911
:1002900000BF80BD0008014080B500AF00220121F1
:1002A000094800F0C9F901220221074800F0C4F909
:1002B00001220321044800F0BFF900220421024872
:1002C00000F0BAF900BF80BD0008014080B500AF62
:1002D00000220121094800F0AFF90022022107485D
:1002E00000F0AAF900220321044800F0A5F9002239
:1002F0000421024800F0A0F900BF80BD00080140C1
:1003000080B500AFFFF734FF164B1B681846FFF7A8
:1003100057FFFFF773FF144A002141F2883000F0C5
:10032000D9FEFFF79FFF104A002141F2883000F00C
:10033000D1FEFFF7CBFF0C4A002140F6B83000F0A9
:10034000C9FEFFF7A9FF084A002141F2883000F0FA
:10035000C1FEFFF76DFF044A002141F2883000F032
:10036000B9FED6E700000020005125020D48854661
:10037000AFF300800C480D490D4A002302E0D45829
:10038000C4500433C4188C42F9D30A4A0A4C0023DF
:1003900001E013600432A242FBD301F031F9FFF710
:1003A000AFFFFEE7005000200000002024000020E6
:1003B00068160008240000209C000020FEE780B49E
:1003C00085B000AF0346FB80FB88002B01D10023E2
:1003D000FB73FB88012B01D10423FB73FB88022BE9
:1003E00001D10823FB73FB88032B01D10C23FB7382
:1003F000FB88042B01D11023FB73FB88052B01D153
:100400001423FB73FB88062B01D11823FB73FB8895
:10041000072B01D11C23FB73FB88082B01D1002380
:10042000FB73FB88092B01D10423FB73FB880A2B88
:1004300001D10823FB73FB880B2B01D10C23FB7329
:10044000FB880C2B01D11023FB73FB880D2B01D1F2
:100450001423FB73FB880E2B01D11823FB73FB883D
:100460000F2B01D11C23FB73FB7B18461437BD46B1
:1004700080BC704780B584B000AFF8600B467A60EE
:100480007B81FB68694A934206D1694B9B69684A44
:1004900043F00403936110E0FB68664A934206D17F
:1004A000634B9B69624A43F00803936105E0604B2C
:1004B0009B695F4A43F0100393617B89072B56D8F1
:1004C0007B891846FFF77BFF03461A460F239340AC
:1004D000DA43FB681B681A40FB681A607B68082BCC
:1004E00002D07B68182B33D17B68182B17D17B89FE
:1004F0001846FFF764FF03461A46082303FA02F280
:10050000FB681B681A43FB681A60FB68DB687A8922
:10051000012101FA02F21A43FB68DA6081E07B896B
:100520001846FFF74CFF03461A46082303FA02F267
:10053000FB681B681A43FB681A60FB68DB687A89F2
:10054000012101FA02F2D2431A40FB68DA6068E046
:100550007B891846FFF733FF03461A467B6803FA88
:1005600002F2FB681B681A43FB681A6059E07B893A
:10057000072B56D97B891846FFF721FF03461A46F9
:100580000F239340DA43FB685B681A40FB685A60AC
:100590007B68082B02D07B68182B33D17B68182B23
:1005A00017D17B891846FFF70AFF03461A4608232E
:1005B00003FA02F2FB685B681A43FB685A60FB6847
:1005C000DB687A89012101FA02F21A43FB68DA60DA
:1005D00027E07B891846FFF7F2FE03461A460823F8
:1005E00003FA02F2FB685B681A43FB685A60FB6817
:1005F000DB687A89012101FA02F2D2431A40FB68D2
:10060000DA600EE07B891846FFF7D9FE03461A46EA
:100610007B6803FA02F2FB685B681A43FB685A6066
:10062000FFE700BF1037BD4680BD00BF0008014096
:1006300000100240000C014080B483B000AF78602D
:100640000B467B8013467B707B78002B09D07B6840
:10065000DB687A88012101FA02F21A437B68DA60CA
:1006600009E07B68DB687A88012101FA02F2D24353
:100670001A407B68DA6000BF0C37BD4680BC70470B
:1006800080B500AF054B5B69044A43F00103536139
:10069000034B1B68984700BF80BD00BF00040140AA
:1006A0005000002080B500AF054B5B69044A43F061
:1006B00002035361034B5B68984700BF80BD00BFD6
:1006C000000401405000002080B500AF054B5B697D
:1006D000044A43F004035361034B9B68984700BFEF
:1006E00080BD00BF000401405000002080B500AF75
:1006F000054B5B69044A43F008035361034BDB6815
:10070000984700BF80BD00BF00040140500000209A
:1007100080B500AF054B5B69044A43F01003536199
:10072000034B1B69984700BF80BD00BF0004014018
:100730005000002080B500AF264B5B6903F020031A
:10074000002B08D0234B5B69224A43F020035361FE
:10075000214B5B6998471F4B5B6903F04003002BFB
:1007600008D01C4B5B691B4A43F0400353611A4B92
:100770009B699847174B5B6903F08003002B08D0F7
:10078000144B5B69134A43F080035361124BDB69DE
:100790009847104B5B6903F48073002B08D00D4B16
:1007A0005B690C4A43F4807353610B4B1B6A984797
:1007B000084B5B6903F40073002B08D0054B5B69A1
:1007C000044A43F400735361034B5B6A984700BFCC
:1007D00080BD00BF000401405000002080B500AF84
:1007E0002D4B5B6903F48063002B08D02A4B5B69B7
:1007F000294A43F480635361284B9B6A9847264BF0
:100800005B6903F40063002B08D0234B5B69224A29
:1008100043F400635361214BDB6A98471E4B5B69CD
:1008200003F48053002B08D01B4B5B691A4A43F436
:1008300080535361194B1B6B9847174B5B6903F44B
:100840000053002B08D0144B5B69134A43F4005348
:100850005361124B5B6B98470F4B5B6903F480430A
:10086000002B08D00C4B5B690B4A43F48043536167
:100870000A4B9B6B9847084B5B6903F40043002BC2
:1008800008D0054B5B69044A43F400435361034BB2
:10089000DB6B984700BF80BD000401405000002082
:1008A00080B483B000AF03460A46FB711346BB71A8
:1008B000FB79002B39D1BB79002B75D13D4B5B689F
:1008C0003C4A23F4803353603A4B5B68394A23F443
:1008D00070135360374B5B68364A43F4E013536040
:1008E000344B1B68334A43F080731360314B5B68B1
:1008F000304A23F0030353602E4B5B682D4A43F0CC
:10090000020353602B4B5B682A4A23F0F0035360C9
:10091000284B5B68274A23F460535360254B5B6880
:10092000244A23F4E06353603EE0BB79032B3BD1C0
:10093000204B1B681F4A23F4802313601D4B1B6848
:100940001C4A43F4803313601A4B5B68194A43F422
:1009500080335360174B5B68164A43F4E0135360CF
:10096000144B1B68134A43F080731360114B5B6890
:10097000104A23F0030353600E4B5B680D4A43F0AB
:10098000020353600B4B5B680A4A43F080035360D9
:10099000084B5B68074A23F460535360054B5B6860
:1009A000044A23F4E063536000BF0C37BD4680BCAB
:1009B000704700BF0010024080B588B000AFF860FB
:1009C000B9607A603B60FB681B6823F00102FB683A
:1009D0001A600123FB770023BB6101237B6111E0D7
:1009E0003B687A6902FB03F3BA6AB2FBF3F3BB61BB
:1009F000BB69B3F5FA4F03D37B6902337B6101E036
:100A00000023FB77FB7F012BEAD0FB688E4A9342E1
:100A100040F0D7808D4B9B698C4A43F4006393610F
:100A20008A4B9B69894A43F004039361874B9B6916
:100A3000864A43F001039361BB68012B2DD10B2241
:100A400008218348FFF716FDFB689B6943F0080205
:100A5000FB689A61FB681B6A43F00102FB681A623B
:100A6000FB689B6943F06002FB689A61BB697A6826
:100A700002FB03F3774AA2FB03239A09FB685A633C
:100A8000FB685B6C43F40042FB685A64FB68DB68FC
:100A900043F00302FB68DA60F6E2BB68022B2DD15B
:100AA0000B2209216A48FFF7E5FCFB689B6943F4C8
:100AB0000062FB689A61FB681B6A43F01002FB68E6
:100AC0001A62FB689B6943F4C042FB689A61BB6988
:100AD0007A6802FB03F35F4AA2FB03239A09FB68CF
:100AE0009A63FB685B6C43F40042FB685A64FB68E2
:100AF000DB6843F00502FB68DA60C5E2BB68032BE4
:100B00002DD10B220A215248FFF7B4FCFB68DB69A8
:100B100043F00802FB68DA61FB681B6A43F48072E9
:100B2000FB681A62FB68DB6943F06002FB68DA610C
:100B3000BB697A6802FB03F3464AA2FB03239A09C6
:100B4000FB68DA63FB685B6C43F40042FB685A6441
:100B5000FB68DB6843F00902FB68DA6094E2BB687B
:100B6000042B40F091820B220B213948FFF782FCC5
:100B7000FB68DB6943F40062FB68DA61FB681B6AAF
:100B800043F48052FB681A62FB68DB6943F4C0429D
:100B9000FB68DA61BB697A6802FB03F32D4AA2FBAA
:100BA00003239A09FB681A64FB685B6C43F40042F8
:100BB000FB685A64FB68DB6843F01102FB68DA608B
:100BC00062E2FB68B3F1804F40F0C8801F4BDB69E5
:100BD0001E4A43F00103D3611C4B9B691B4A43F03F
:100BE00004039361194B9B69184A43F00103936115
:100BF000BB68012B30D10B2200211548FFF73AFCCE
:100C0000FB689B6943F00802FB689A61FB681B6AFA
:100C100043F00102FB681A62FB689B6943F06002C3
:100C2000FB689A61BB697A6802FB03F3094AA2FB7D
:100C300003239A09FB685A63FB68DB6843F00302ED
:100C4000FB68DA6020E200BF002C01400010024087
:100C500000080140D34D6210BB68022B27D10B2244
:100C600001218D48FFF706FCFB689B6943F4006295
:100C7000FB689A61FB681B6A43F01002FB681A620A
:100C8000FB689B6943F4C042FB689A61BB697A6860
:100C900002FB03F3814AA2FB03239A09FB689A63D0
:100CA000FB68DB6843F00502FB68DA60ECE1BB68D7
:100CB000032B27D10B2202217748FFF7DBFBFB68D0
:100CC000DB6943F00802FB68DA61FB681B6A43F4E6
:100CD0008072FB681A62FB68DB6943F06002FB68A4
:100CE000DA61BB697A6802FB03F36C4AA2FB032357
:100CF0009A09FB68DA63FB68DB6843F00902FB686A
:100D0000DA60C1E1BB68042B40F0BE810B220321F5
:100D10006148FFF7AFFBFB68DB6943F40062FB68E7
:100D2000DA61FB681B6A43F48052FB681A62FB6855
:100D3000DB6943F4C042FB68DA61BB697A6802FB95
:100D400003F3564AA2FB03239A09FB681A64FB6863
:100D5000DB6843F01102FB68DA6095E1FB68504AFA
:100D6000934240F0CF804F4BDB694E4A43F0020381
:100D7000D3614C4B9B694B4A43F004039361494B4D
:100D80009B69484A43F008039361464B9B69454A77
:100D900043F001039361BB68012B27D10B2206218D
:100DA0003D48FFF767FBFB689B6943F00802FB685F
:100DB0009A61FB681B6A43F00102FB681A62FB68D8
:100DC0009B6943F06002FB689A61BB697A6802FB29
:100DD00003F3324AA2FB03239A09FB685A63FB68B8
:100DE000DB6843F00302FB68DA604DE1BB68022B6D
:100DF00027D10B2207212848FFF73CFBFB689B69A2
:100E000043F40062FB689A61FB681B6A43F01002BE
:100E1000FB681A62FB689B6943F4C042FB689A61F5
:100E2000BB697A6802FB03F31C4AA2FB03239A09FD
:100E3000FB689A63FB68DB6843F00502FB68DA60D5
:100E400022E1BB68032B31D10B2200211648FFF7AA
:100E500011FBFB68DB6943F00802FB68DA61FB68A1
:100E60001B6A43F48072FB681A62FB68DB6943F01B
:100E70006002FB68DA61BB697A6802FB03F3074A28
:100E8000A2FB03239A09FB68DA63FB68DB6843F083
:100E90000902FB68DA60F7E000080140D34D6210F8
:100EA0000004004000100240000C0140BB68042B0D
:100EB00040F0EA800B2201218248FFF7DBFAFB6851
:100EC000DB6943F40062FB68DA61FB681B6A43F488
:100ED0008052FB681A62FB68DB6943F4C042FB681E
:100EE000DA61BB697A6802FB03F3774AA2FB03234A
:100EF0009A09FB681A64FB68DB6843F01102FB681F
:100F0000DA60C1E0FB68714A934240F0BD80704BEB
:100F1000DB696F4A43F00403D3616D4B9B696C4AF4
:100F200043F0080393616A4B9B69694A43F00103EC
:100F30009361BB68012B27D10B2206216148FFF783
:100F400099FAFB689B6943F00802FB689A61FB68A9
:100F50001B6A43F00102FB681A62FB689B6943F05D
:100F60006002FB689A61BB697A6802FB03F3564A28
:100F7000A2FB03239A09FB685A63FB68DB6843F012
:100F80000302FB68DA607FE0BB68022B27D10B22EB
:100F900007214C48FFF76EFAFB689B6943F4006237
:100FA000FB689A61FB681B6A43F01002FB681A62D7
:100FB000FB689B6943F4C042FB689A61BB697A682D
:100FC00002FB03F3404AA2FB03239A09FB689A63DE
:100FD000FB68DB6843F00502FB68DA6054E0BB683D
:100FE000032B27D10B2208213648FFF743FAFB6871
:100FF000DB6943F00802FB68DA61FB681B6A43F4B3
:101000008072FB681A62FB68DB6943F06002FB6870
:10101000DA61BB697A6802FB03F32B4AA2FB032364
:101020009A09FB68DA63FB68DB6843F00902FB6836
:10103000DA6029E0BB68042B26D10B220921214864
:10104000FFF718FAFB68DB6943F40062FB68DA61BA
:10105000FB681B6A43F48052FB681A62FB68DB6919
:1010600043F4C042FB68DA61BB697A6802FB03F3B0
:10107000154AA2FB03239A09FB681A64FB68DB6824
:1010800043F01102FB68DA60FB681B6843F08002E2
:10109000FB681A60FB68BA69DA627B695A1EFB68F2
:1010A0009A62FB685B6943F00102FB685A61FB6866
:1010B0001B6843F00102FB681A6000BF2037BD4681
:1010C00080BD00BF000C0140D34D621000080040FD
:1010D0000010024080B489B000AF03463A60FB8044
:1010E0000B467B714F4BDB694E4A43F00103D361E2
:1010F0004D4B1B681A684C4B1B6822F001021A60AA
:101100000123FB770023BB6101237B614FF47A73DA
:101110003B610223FB737B79002B0DD14FF47A7373
:101120003B61FB8840F6B832934202D96423FB73DB
:1011300030E00A23FB732DE03C4B3B61FB8840F61B
:10114000B832934202D90A23FB7323E00523FB73D1
:1011500020E03A683B69B2FBF3F3FA8802FB03F242
:101160007B69B2FBF3F3BB61BB69B3F5FA4F0FD3F5
:101170007B694FF6FA72934205D94FF6FA737B6199
:101180000023FB7706E0FB7B7A6913447B6101E077
:101190000023FB77FB7F012BDBD0234B1B681A68F6
:1011A000214B1B6822F001021A601F4B1B681A6852
:1011B0001D4B1B6842F004021A601B4B1B68DA6867
:1011C000194B1B6842F00102DA60174B1B68BA69C1
:1011D000DA62154B1B687A69013A9A62124B1B68F6
:1011E0005A69114B1B6842F001025A610E4B1B6891
:1011F0001A680D4B1B6842F001021A600C4B012269
:101200001A700C4B1B680B4A43F08053136000BFED
:10121000074B1B78002BFBD100BF2437BD4680BC99
:10122000704700BF001002402000002040420F0025
:101230001C00002000E100E080B485B000AFF86041
:10124000B9607A60FB703C4B1B681A683A4B1B68AC
:1012500022F001021A60FB78002B2FD1364B1B685D
:101260009A69354B1B6842F400629A61324B1B68E5
:101270009A69314B1B6842F4C0429A612E4B1B683D
:101280009A692D4B1B6842F008029A612A4B1B6831
:101290009A69294B1B6842F060029A61264B1B68D1
:1012A0001A6A254B1B6842F010021A62224B1B6817
:1012B0001A6A214B1B6842F001021A621E4B1B681E
:1012C0001A681D4B1B6842F080021A601A4B1B689B
:1012D0007A68DA62184B1B68BA689A63164B1B6807
:1012E000BA685A63144B1B68FA689A62124B1B68FF
:1012F0005A6C114B1B6842F400425A640E4B1B6837
:10130000DA680D4B1B6842F00102DA600A4B1B6879
:101310005A69094B1B6842F001025A61064B1B686F
:101320001A68054B1B6842F001021A6000BF1437AF
:10133000BD4680BC704700BF0400002080B400AFF1
:101340000B4B1B681A690A4B1B6822F001021A61D9
:10135000084B00221A70064B1B681A68044B1B6866
:1013600022F001021A6000BFBD4680BC704700BF7A
:10137000200000201C00002080B500AF194B1B7816
:10138000012B19D1184B1B69174A23F00103136174
:10139000164B1B68002B05D0144B1B68013B134AEE
:1013A00013601CE00F4B00221A700F4B1B680E4A93
:1013B00023F00103136012E00D4B1B681A680C4BFD
:1013C0001B6822F001021A60094B1B681A69084B5E
:1013D0001B6822F001021A61064B1B68984700BF88
:1013E00080BD00BF480000200004004044000020F1
:1013F000980000208C00002080B400AF074B1B69D0
:10140000064A23F001031361054B1B8801339AB28E
:10141000034B1A8000BFBD4680BC704700080040E7
:101420004200002080B500AF5D4B1A685D4B1B6821
:101430009A4211D95C4B01221A705C4B00221A703F
:10144000584B1B685A4A1278B3FBF2F2554B1B6893
:101450001344534A136018E0514B1B68632B14D894
:10146000514B00221A70514B01221A70514B1B78BC
:1014700083F00103DAB24F4B1A704A4B1B684C4A97
:101480001278B3FBF2F3464A13604A4B1B78012BE8
:1014900010D1494B1B681A6A474B1B6822F00102A6
:1014A0001A62454B1B681A6A434B1B6842F01002D4
:1014B0001A6213E03F4B1B78002B0FD13E4B1B6889
:1014C0001A6A3D4B1B6822F010021A623A4B1B68E5
:1014D0001A6A394B1B6842F001021A62334B1B78BF
:1014E000012B1CD1304B1B78002B18D1334B1B68C0
:1014F0002C4A1360324B1868294B1968294B1A681B
:101500000123FFF799FE274B1B68294A1278B3FB8A
:10151000F2F2234B1B681344214A136035E0224B3F
:101520001B78012B29D1214B1B78002B25D1234B74
:101530001B681C4A13601A4B1A681A4B1B681C491B
:101540000978B3FBF1F3D31A154A13601C4B1868E2
:10155000134B1968134B1A680123FFF76DFE114BEB
:101560001B68134A1278B3FBF2F20D4B1B689A42C8
:101570000BD10B4B00221A6007E00F4B1B681A6857
:101580000D4B1B6822F001021A600B4B1B681A6995
:10159000094B1B6822F001021A6100BF80BD00BF29
:1015A000180000200C00002040000020080000204F
:1015B00094000020090000200400002014000020F6
:1015C0001000002080B500AF024B1B681B699847D4
:1015D00000BF80BD4C00002080B500AF024B1B68EF
:1015E0001B69984700BF80BD4C00002080B500AF4C
:1015F000024B1B681B69984700BF80BD4C00002050
:1016000070B500250C4E0D4CA41BA410A54209D1A9
:1016100000F01AF800250A4E0A4CA41BA410A5429B
:1016200005D170BD56F8253098470135EEE756F8DC
:10163000253098470135F2E760160008601600086B
:101640006016000864160008F8B500BFF8BC08BCB6
:101650009E467047F8B500BFF8BC08BC9E46704770
:041660005501000828
:041664003101000848
:10166800E8030000002C014001010000E80300002D
:1016780001000000E80300007D00000001000000F8
:04168800000000401E
:040000050800036D7F
:00000001FF
