:020000040800F2
:10000000005000201509000865090008650900086E
:10001000650900086509000865090008000000007E
:10002000000000000000000000000000650900085A
:10003000650900080000000065090008650900085E
:1000400065090008650900086509000865090008D8
:100050006509000865090008291500084D15000804
:100060007115000895150008B91500086509000804
:1000700065090008650900086509000865090008A8
:100080006509000865090008650900086509000898
:10009000650900086509000865090008DD15000804
:1000A00065090008B523000865090008650900080E
:1000B000CD220008092300088923000865090008EB
:1000C0006509000865090008650900086509000858
:1000D0006509000855250008692500087D250008E8
:1000E0008516000865090008000000006509000881
:1000F0006509000865090008650900086509000828
:100100006509000865090008650900086509000817
:100110006509000865090008650900086509000807
:1001200065090008650900086509000865090008F7
:1001300010B5054C237833B9044B13B10448AFF321
:1001400000800123237010BD280000200000000063
:10015000D825000808B5034B1BB103490348AFF38A
:10016000008008BD000000002C000020D8250008F9
:1001700080B500AF104B9B690F4A43F004039361B5
:100180000021002001F0E0FA032204210B4800F0D6
:1001900045FC03220521094800F040FC032206210A
:1001A000064800F03BFC03220721044800F036FC1F
:1001B00000F072F800BF80BD00100240000801404E
:1001C00080B584B002AF78600A4B009340F6AC5320
:1001D0007A680121084801F043FB064B009340F682
:1001E000AC537A680321044801F03AFB00BF08379A
:1001F000BD4680BD00512502002C014080B500AFF6
:1002000001220421094800F0EBFC002205210748E7
:1002100000F0E6FC01220621044800F0E1FC002287
:100220000721024800F0DCFC00BF80BD000801404F
:1002300080B500AF01220421094800F0D1FC002262
:100240000521074800F0CCFC00220621044800F0FC
:10025000C7FC01220721024800F0C2FC00BF80BD9C
:100260000008014080B500AF00220421094800F0D9
:10027000B7FC01220521074800F0B2FC012206214B
:10028000044800F0ADFC00220721024800F0A8FC61
:1002900000BF80BD0008014080B500AF00220421EE
:1002A000094800F09DFC00220521074800F098FC59
:1002B00000220621044800F093FC00220721024896
:1002C00000F08EFC00BF80BD0008014080B584B006
:1002D00000AFF860B9607A607B682D2B40D9BB68AD
:1002E000B3F57A7F03D1FB68BA681A6033E0BB6864
:1002F000B3F57A7F2FD27B68283B0F2B11D9BB68CF
:10030000B3F52F7F05D8BB6803F1C802FB681A60FC
:1003100007E0BB68B3F52F7F03D9FB684FF47A720F
:100320001A607B68283B0F2B15D87B68283B052B70
:1003300011D9BB68B3F52F7F05D8BB6803F1640200
:10034000FB681A6007E0BB68B3F52F7F03D9FB6831
:100350004FF47A721A60FB681B681846FFF730FF8B
:1003600000BF1037BD4680BD80B584B000AFF860D7
:10037000B9607A607B68282B0CD87B68092B09D977
:10038000BB68A3F16402FB681A60FB681B6818462F
:10039000FFF716FF00BF1037BD4680BD80B584B0A3
:1003A00000AFF860B9607A607B680A2B3DD8BB6803
:1003B0000F2B3AD9FB68B3F57A7F0CD8FB68B3F5FD
:1003C000487F08D3FFF74EFF1B4A00214FF47A7095
:1003D00001F0D4FD29E0FB68B3F5487F0CD2FB683F
:1003E000B3F5167F08D3FFF73DFF134A00214FF402
:1003F000FA6001F0C3FD18E0FB68B3F5167F0CD27C
:10040000FB68B3F5FA7F08D3FFF72CFF0A4A0021F7
:1004100040F6B83001F0B2FD07E0FFF723FF064ACF
:10042000002140F6AC5001F0A9FDFFF7E7FE00BF48
:100430001037BD4680BD00BF0051250280B584B095
:1004400000AFF860B9607A60BB680A2B3DD87B6862
:100450000F2B3AD9FB68B3F57A7F0CD8FB68B3F55C
:10046000487F08D3FFF7E4FE1B4A00214FF4FA70DF
:1004700001F084FD29E0FB68B3F5487F0CD2FB68EE
:10048000B3F5167F08D3FFF7D3FE134A00214FF4CC
:100490007A7001F073FD18E0FB68B3F5167F0CD29B
:1004A000FB68B3F5FA7F08D3FFF7C2FE0A4A0021C2
:1004B00040F2DC5001F062FD07E0FFF7B9FE064AAA
:1004C000002140F6C41001F059FDFFF797FE00BF70
:1004D0001037BD4680BD00BF0051250280B500AF7A
:1004E00001210D4800F0A0FB0346012B07D101219B
:1004F0000A4801F0F5FD0246094B1A6009E00021A7
:10050000064801F0EDFD0246064B1A60064B01223B
:100510001A7000BF80BD00BF0008014000127A00C1
:1005200044000020480000204C00002080B500AFAF
:1005300001210D4800F078FB0346012B07D1012172
:100540000A4801F0CDFD0246094B1A6009E000217E
:10055000064801F0C5FD0246064B1A60064B012213
:100560001A7000BF80BD00BF0008014000127A0071
:1005700050000020540000205800002080B500AF3B
:1005800001210D4800F050FB0346012B07D101214A
:100590000A4801F0A5FD0246094B1A6009E0002156
:1005A000064801F09DFD0246064B1A60064B0122EB
:1005B0001A7000BF80BD00BF0008014000127A0021
:1005C0005C000020600000206400002080B500AFC7
:1005D000294B9B69284A43F004039361264B9B698E
:1005E000254A43F008039361234B9B69224A43F059
:1005F0000103936102220B21204800F00FFA002230
:100600000B211E4800F0ECFA02220C211B4800F0DE
:1006100005FA00220C21194800F0E2FA02220D210D
:10062000164800F0FBF900220D21144800F0D8FA1A
:1006300004220121124800F0F1F90422022110489D
:1006400000F0ECF9042203210D4800F0E7F90D4B0E
:10065000022201210A4800F061FB0B4B0222022119
:10066000074800F05BFB094B02220321044800F01D
:1006700055FB00BF80BD00BF00100240000C0140D0
:1006800000080140DD0400082D0500087D05000874
:1006900080B584B000AF01220B211F4800F0A0FA02
:1006A0001E4A01210A2001F069FC00220B211A4890
:1006B00000F096FA47F23053FB600121174801F031
:1006C0000FFDB8600CE00021144801F009FD02465E
:1006D000BB68D31AFA689A4202D24FF0FF3317E090
:1006E0000F4B1B78DBB2002BEDD00E4B1A680E4B74
:1006F0001B68D31A7B607B68AA2202FB03F30B4AB8
:10070000A2FB03235B0B3B60054B00221A703B6886
:1007100018461037BD4680BD000C014000127A001B
:100720004C00002048000020440000205917B7D199
:1007300080B584B000AF01220C211F4800F050FAB0
:100740001E4A01210A2001F019FC00220C211A483E
:1007500000F046FA47F23053FB600121174801F0E0
:10076000BFFCB8600CE00021144801F0B9FC02465F
:10077000BB68D31AFA689A4202D24FF0FF3317E0EF
:100780000F4B1B78DBB2002BEDD00E4B1A680E4BD3
:100790001B68D31A7B607B68AA2202FB03F30B4A17
:1007A000A2FB03235B0B3B60054B00221A703B68E6
:1007B00018461037BD4680BD000C014000127A007B
:1007C0005800002054000020500000205917B7D1D5
:1007D00080B584B000AF01220D211F4800F000FA5F
:1007E0001E4A01210A2001F0C9FB00220D211A48EE
:1007F00000F0F6F947F23053FB600121174801F091
:100800006FFCB8600CE00021144801F069FC02465E
:10081000BB68D31AFA689A4202D24FF0FF3317E04E
:100820000F4B1B78DBB2002BEDD00E4B1A680E4B32
:100830001B68D31A7B607B68AA2202FB03F30B4A76
:10084000A2FB03235B0B3B60054B00221A703B6845
:1008500018461037BD4680BD000C014000127A00DA
:1008600064000020600000205C0000205917B7D110
:1008700080B584B000AFFFF7A9FEFFF779FC224BEB
:100880001B681846FFF79CFCFFF7B8FCFFF700FF5A
:10089000F8601E4B1B68FA6819461B48FFF716FDE7
:1008A0001B4A002140F6B83001F068FB174B1B686B
:1008B000FA6819461448FFF757FD154A002140F61B
:1008C000B83001F05BFBFFF733FFB860FFF780FF44
:1008D00078600D4B1B687A68B9681846FFF75EFDB3
:1008E0000B4A002140F6B83001F048FB064B1B686C
:1008F0007A68B9681846FFF7A1FD054A002140F65D
:10090000B83001F03BFBBFE70400002000000020EE
:10091000005125020D488546AFF300800C480D4973
:100920000D4A002302E0D458C4500433C4188C424A
:10093000F9D30A4A0A4C002301E013600432A242B0
:10094000FBD301F025FEFFF793FFFEE700500020E8
:100950000000002028000020F825000828000020C2
:10096000C4000020FEE780B485B000AF0346FB80E2
:10097000FB88002B01D10023FB73FB88012B01D1E5
:100980000423FB73FB88022B01D10823FB73FB8834
:10099000032B01D10C23FB73FB88042B01D1102303
:1009A000FB73FB88052B01D11423FB73FB88062BFB
:1009B00001D11823FB73FB88072B01D11C23FB7388
:1009C000FB88082B01D10023FB73FB88092B01D185
:1009D0000423FB73FB880A2B01D10823FB73FB88DC
:1009E0000B2B01D10C23FB73FB880C2B01D11023A3
:1009F000FB73FB880D2B01D11423FB73FB880E2B9B
:100A000001D11823FB73FB880F2B01D11C23FB732F
:100A1000FB7B18461437BD4680BC704780B584B058
:100A200000AFF8600B467A607B81FB68694A9342AD
:100A300006D1694B9B69684A43F00403936110E057
:100A4000FB68664A934206D1634B9B69624A43F056
:100A50000803936105E0604B9B695F4A43F0100314
:100A600093617B89072B56D87B891846FFF77BFF5C
:100A700003461A460F239340DA43FB681B681A406B
:100A8000FB681A607B68082B02D07B68182B33D177
:100A90007B68182B17D17B891846FFF764FF034644
:100AA0001A46082303FA02F2FB681B681A43FB6824
:100AB0001A60FB68DB687A89012101FA02F21A43A5
:100AC000FB68DA6081E07B891846FFF74CFF03463C
:100AD0001A46082303FA02F2FB681B681A43FB68F4
:100AE0001A60FB68DB687A89012101FA02F2D243BD
:100AF0001A40FB68DA6068E07B891846FFF733FF2D
:100B000003461A467B6803FA02F2FB681B681A4325
:100B1000FB681A6059E07B89072B56D97B891846F8
:100B2000FFF721FF03461A460F239340DA43FB6881
:100B30005B681A40FB685A607B68082B02D07B68B0
:100B4000182B33D17B68182B17D17B891846FFF7F8
:100B50000AFF03461A46082303FA02F2FB685B68A1
:100B60001A43FB685A60FB68DB687A89012101FA45
:100B700002F21A43FB68DA6027E07B891846FFF728
:100B8000F2FE03461A46082303FA02F2FB685B688A
:100B90001A43FB685A60FB68DB687A89012101FA15
:100BA00002F2D2431A40FB68DA600EE07B891846F5
:100BB000FFF7D9FE03461A467B6803FA02F2FB6888
:100BC0005B681A43FB685A60FFE700BF1037BD46F9
:100BD00080BD00BF0008014000100240000C014031
:100BE00080B483B000AF78600B467B8013467B7087
:100BF0007B78002B09D07B68DB687A88012101FAB9
:100C000002F21A437B68DA6009E07B68DB687A8865
:100C1000012101FA02F2D2431A407B68DA6000BF78
:100C20000C37BD4680BC704780B483B000AF78609D
:100C30000B467B807B689A687B8822FA03F3DBB2E1
:100C400003F00103DBB218460C37BD4680BC704789
:100C500080B483B000AF0346FB80FB880F2B54D8D1
:100C600001A252F823F000BFA90C0008B70C00083D
:100C7000C50C0008D30C0008E10C0008EF0C0008BC
:100C8000EF0C0008EF0C0008EF0C0008EF0C000858
:100C9000FD0C0008FD0C0008FD0C0008FD0C000810
:100CA000FD0C0008FD0C00081A4B1B68194A43F0A4
:100CB0004003136029E0174B1B68164A43F080037A
:100CC000136022E0134B1B68124A43F480731360D5
:100CD0001BE0104B1B680F4A43F40073136014E0D1
:100CE0000C4B1B680B4A43F4806313600DE0094B07
:100CF0001B68084A43F40003136006E0064B1B68B8
:100D0000054A43F48073136000BF00BF0C37BD4633
:100D100080BC704700E100E004E100E080B584B0F1
:100D200000AFF8607B600B467B8113463B817B897B
:100D300004221946F868FFF771FE7B890F2B00F239
:100D4000858301A252F823F0890D0008EF0D0008F9
:100D5000550E0008BB0E0008210F0008870F000881
:100D60000110000867100008CD10000833110008BA
:100D700099110008FF1100087B120008E112000819
:100D800047130008AB130008924B9B68914A23F06D
:100D90000F039360FB68904A934206D18D4B9B688A
:100DA0008C4A23F00F03936031E3FB688B4A934234
:100DB00006D1884B9B68874A43F00103936026E382
:100DC000FB68874A934206D1824B9B68814A43F075
:100DD000020393601BE3FB68824A934240F017834F
:100DE0007C4B9B687B4A43F0030393600FE3794B92
:100DF0009B68784A23F0F0039360FB68764A93423D
:100E000006D1744B9B68734A23F0F003936000E3B0
:100E1000FB68724A934206D16E4B9B686D4A43F061
:100E200010039360F5E2FB686D4A934206D1694B6B
:100E30009B68684A43F020039360EAE2FB68694AD2
:100E4000934240F0E682634B9B68624A43F0300372
:100E50009360DEE25F4B9B685E4A23F470639360AD
:100E6000FB685D4A934206D15A4B9B68594A23F46A
:100E700070639360CFE2FB68584A934206D1554BAA
:100E80009B68544A43F480739360C4E2FB68544AFD
:100E9000934206D14F4B9B684E4A43F400739360D4
:100EA000B9E2FB684F4A934240F0B582494B9B68D8
:100EB000484A43F440739360ADE2464B9B68454A11
:100EC00023F470439360FB68434A934206D1414B3D
:100ED0009B68404A23F4704393609EE2FB683F4A5C
:100EE000934206D13B4B9B683A4A43F4805393604C
:100EF00093E2FB683A4A934206D1364B9B68354AE7
:100F000043F40053936088E2FB68364A934240F012
:100F10008482304B9B682F4A43F4405393607CE2B9
:100F20002C4BDB682B4A23F00F03D360FB682A4A63
:100F3000934206D1274BDB68264A23F00F03D36088
:100F40006DE2FB68254A934206D1224BDB68214AB9
:100F500043F00103D36062E2FB68214A934206D169
:100F60001C4BDB681B4A43F00203D36057E2FB686B
:100F70001C4A934240F05382164BDB68154A43F0FB
:100F80000303D3604BE2134BDB68124A23F0F003F8
:100F9000D360FB68104A934206D10E4BDB680D4AC2
:100FA00023F0F003D3603CE2FB680C4A934206D185
:100FB000084BDB68074A43F01003D36031E2FB685B
:100FC000074A934210D1034BDB68024A43F02003E7
:100FD000D36026E20000014000080140000C0140FF
:100FE0000010014000140140FB68934A934240F016
:100FF0001882924BDB68914A43F03003D36010E2D1
:101000008E4BDB688D4A23F47063D360FB688C4A97
:10101000934206D1894BDB68884A23F47063D3601E
:1010200001E2FB68874A934206D1844BDB68834A1E
:1010300043F48073D360F6E1FB68834A934206D1A0
:101040007E4BDB687D4A43F40073D360EBE1FB68C1
:10105000794A934240F0E781784BDB68774A43F462
:101060004073D360DFE1754BDB68744A23F470434F
:10107000D360FB68724A934206D1704BDB686F4ABB
:1010800023F47043D360D0E1FB686E4A934206D1EB
:101090006A4BDB68694A43F48053D360C5E1FB685F
:1010A000694A934206D1654BDB68644A43F40053B6
:1010B000D360BAE1FB68604A934240F0B6815F4B6F
:1010C000DB685E4A43F44053D360AEE15B4B1B697F
:1010D0005A4A23F00F031361FB68594A934206D121
:1010E000564B1B69554A23F00F0313619FE1FB68C0
:1010F000544A934206D1514B1B69504A43F00103B5
:10110000136194E1FB68504A934206D14B4B1B6933
:101110004A4A43F00203136189E1FB68464A93425D
:1011200040F08581454B1B69444A43F0030313613A
:101130007DE1424B1B69414A23F0F0031361FB68D8
:101140003F4A934206D13D4B1B693C4A23F0F003D2
:1011500013616EE1FB683B4A934206D1374B1B6932
:10116000364A43F01003136163E1FB68364A934249
:1011700006D1324B1B69314A43F02003136158E119
:10118000FB682D4A934240F054812C4B1B692B4A3B
:1011900043F0300313614CE1284B1B69274A23F4C9
:1011A00070631361FB68264A934206D1234B1B6987
:1011B000224A23F4706313613DE1FB68214A9342A4
:1011C00006D11E4B1B691D4A43F48073136132E143
:1011D000FB681D4A934206D1184B1B69174A43F41A
:1011E0000073136127E1FB68134A934240F02381A7
:1011F000124B1B69114A43F4407313611BE10F4BFF
:101200001B690E4A23F470431361FB680C4A934236
:1012100006D10A4B1B69094A23F4704313610CE1A0
:10122000FB68084A934211D1044B1B69034A43F4FB
:101230008053136101E100BF001401400000014030
:1012400000080140000C014000100140FB68984A72
:10125000934206D1974B1B69964A43F4005313619E
:10126000EBE0FB68944A934240F0E780914B1B69A6
:10127000904A43F440531361DFE08E4B5B698D4A23
:1012800023F00F035361FB688C4A934206D1894BCC
:101290005B69884A23F00F035361D0E0FB68884AFA
:1012A000934206D1834B5B69824A43F00103536149
:1012B000C5E0FB687E4A934206D17E4B5B697D4A5E
:1012C00043F002035361BAE0FB687B4A934240F06B
:1012D000B680784B5B69774A43F003035361AEE015
:1012E000744B5B69734A23F0F0035361FB68734AE4
:1012F000934206D16F4B5B696E4A23F0F003536152
:101300009FE0FB686E4A934206D16A4B5B69694A6B
:1013100043F01003536194E0FB68654A934206D1A1
:10132000644B5B69634A43F02003536189E0FB68C7
:10133000614A934240F085805E4B5B695D4A43F0B1
:10134000300353617DE05B4B5B695A4A23F4706361
:101350005361FB68594A934206D1564B5B69554A23
:1013600023F4706353616EE0FB68554A934206D1E3
:10137000504B5B694F4A43F48073536163E0FB68F1
:101380004B4A934206D14B4B5B694A4A43F4007384
:10139000536158E0FB68484A934254D1454B5B691E
:1013A000444A43F4407353614DE0424B5B69414A08
:1013B00023F470435361FB68404A934206D13D4B8E
:1013C0005B693C4A23F4704353613EE0FB683C4A4E
:1013D000934206D1374B5B69364A43F480535361DD
:1013E00033E0FB68324A934206D1324B5B69314AA3
:1013F00043F40053536128E0FB682F4A934224D101
:101400002C4B5B692B4A43F4405353611DE000BFF2
:101410001CE000BF1AE000BF18E000BF16E000BFEC
:1014200014E000BF12E000BF10E000BF0EE000BFFC
:101430000CE000BF0AE000BF08E000BF06E000BF0C
:1014400004E000BF02E000BF00E000BF1D4B9B684E
:101450007A89012101FA02F2D2431146194A0B405E
:101460009360184BDB687A89012101FA02F2D243BA
:101470001146144A0B40D3603B89002B0AD1114B13
:101480009B687A89012101FA02F211460D4A0B4349
:1014900093602DE03B89012B16D10A4BDB687A89DA
:1014A000012101FA02F21146064A0B43D3601FE004
:1014B00000100140000001400014014000080140FC
:1014C000000C014000040140154B9B687A89012102
:1014D00001FA02F21146124A0B439360104BDB688B
:1014E0007A89012101FA02F211460D4A0B43D360B9
:1014F0007B890C497A6841F82320094B1B687A895B
:10150000012101FA02F21146054A0B4313607B895F
:101510001846FFF79DFB00BF1037BD4680BD00BFDA
:10152000000401407800002080B500AF054B5B69E6
:10153000044A43F001035361034B1B68984700BF03
:1015400080BD00BF000401407800002080B500AFDE
:10155000054B5B69044A43F002035361034B5B682C
:10156000984700BF80BD00BF000401407800002004
:1015700080B500AF054B5B69044A43F00403536137
:10158000034B9B68984700BF80BD00BF000401402B
:101590007800002080B500AF054B5B69044A43F03A
:1015A00008035361034BDB68984700BF80BD00BF51
:1015B000000401407800002080B500AF054B5B6956
:1015C000044A43F010035361034B1B69984700BF63
:1015D00080BD00BF000401407800002080B500AF4E
:1015E000264B5B6903F02003002B08D0234B5B697B
:1015F000224A43F020035361214B5B6998471F4BFC
:101600005B6903F04003002B08D01C4B5B691B4A4D
:1016100043F0400353611A4B9B699847174B5B6932
:1016200003F08003002B08D0144B5B69134A43F08E
:1016300080035361124BDB699847104B5B6903F4DD
:101640008073002B08D00D4B5B690C4A43F4807308
:1016500053610B4B1B6A9847084B5B6903F400739B
:10166000002B08D0054B5B69044A43F400735361B7
:10167000034B5B6A984700BF80BD00BF0004014078
:101680007800002080B500AF2D4B5B6903F48063C8
:10169000002B08D02A4B5B69294A43F480635361CD
:1016A000284B9B6A9847264B5B6903F40063002B29
:1016B00008D0234B5B69224A43F400635361214BFA
:1016C000DB6A98471E4B5B6903F48053002B08D0FC
:1016D0001B4B5B691A4A43F480535361194B1B6BD4
:1016E0009847174B5B6903F40053002B08D0144B49
:1016F0005B69134A43F400535361124B5B6B984789
:101700000F4B5B6903F48043002B08D00C4B5B69E3
:101710000B4A43F4804353610A4B9B6B9847084B39
:101720005B6903F40043002B08D0054B5B69044A56
:1017300043F400435361034BDB6B984700BF80BD0C
:10174000000401407800002080B483B000AF03465D
:101750000A46FB711346BB71FB79002B39D1BB796B
:10176000002B75D13D4B5B683C4A23F480335360BA
:101770003A4B5B68394A23F470135360374B5B680C
:10178000364A43F4E0135360344B1B68334A43F04A
:1017900080731360314B5B68304A23F0030353605E
:1017A0002E4B5B682D4A43F0020353602B4B5B6862
:1017B0002A4A23F0F0035360284B5B68274A23F43E
:1017C00060535360254B5B68244A23F4E063536005
:1017D0003EE0BB79032B3BD1204B1B681F4A23F40F
:1017E000802313601D4B1B681C4A43F48033136035
:1017F0001A4B5B68194A43F480335360174B5B689C
:10180000164A43F4E0135360144B1B68134A43F029
:1018100080731360114B5B68104A23F0030353601D
:101820000E4B5B680D4A43F0020353600B4B5B6841
:101830000A4A43F080035360084B5B68074A23F46D
:1018400060535360054B5B68044A23F4E0635360C4
:1018500000BF0C37BD4680BC704700BF001002407F
:1018600080B588B000AFF860B9607A603B60FB6813
:101870001B6823F00102FB681A600123FB77002339
:10188000BB6101237B6111E03B687A6902FB03F3D2
:10189000BA6AB2FBF3F3BB61BB69B3F5FA4F03D38A
:1018A0007B6902337B6101E00023FB77FB7F012B27
:1018B000EAD0FB688E4A934240F0D7808D4B9B69FB
:1018C0008C4A43F4006393618A4B9B69894A43F0D5
:1018D00004039361874B9B69864A43F0010393613C
:1018E000BB68012B2DD10B2208218348FFF796F806
:1018F000FB689B6943F00802FB689A61FB681B6AFE
:1019000043F00102FB681A62FB689B6943F06002C6
:10191000FB689A61BB697A6802FB03F3774AA2FB12
:1019200003239A09FB685A63FB685B6C43F400422B
:10193000FB685A64FB68DB6843F00302FB68DA600B
:10194000F6E2BB68022B2DD10B2209216A48FFF772
:1019500065F8FB689B6943F40062FB689A61FB6869
:101960001B6A43F01002FB681A62FB689B6943F430
:10197000C042FB689A61BB697A6802FB03F35F4A65
:10198000A2FB03239A09FB689A63FB685B6C43F430
:101990000042FB685A64FB68DB6843F00502FB68A1
:1019A000DA60C5E2BB68032B2DD10B220A21524815
:1019B000FFF734F8FB68DB6943F00802FB68DA6183
:1019C000FB681B6A43F48072FB681A62FB68DB6980
:1019D00043F06002FB68DA61BB697A6802FB03F3DB
:1019E000464AA2FB03239A09FB68DA63FB685B6C37
:1019F00043F40042FB685A64FB68DB6843F0090269
:101A0000FB68DA6094E2BB68042B40F091820B2201
:101A10000B213948FFF702F8FB68DB6943F40062E9
:101A2000FB68DA61FB681B6A43F48052FB681A6248
:101A3000FB68DB6943F4C042FB68DA61BB697A6822
:101A400002FB03F32D4AA2FB03239A09FB681A64E5
:101A5000FB685B6C43F40042FB685A64FB68DB681C
:101A600043F01102FB68DA6062E2FB68B3F1804F79
:101A700040F0C8801F4BDB691E4A43F00103D3616D
:101A80001C4B9B691B4A43F004039361194B9B69F0
:101A9000184A43F001039361BB68012B30D10B223C
:101AA00000211548FEF7BAFFFB689B6943F0080266
:101AB000FB689A61FB681B6A43F00102FB681A62CB
:101AC000FB689B6943F06002FB689A61BB697A68B6
:101AD00002FB03F3094AA2FB03239A09FB685A633A
:101AE000FB68DB6843F00302FB68DA6020E200BFBA
:101AF000002C01400010024000080140D34D62104C
:101B0000BB68022B27D10B2201218D48FEF786FFEF
:101B1000FB689B6943F40062FB689A61FB681B6A7F
:101B200043F01002FB681A62FB689B6943F4C042F1
:101B3000FB689A61BB697A6802FB03F3814AA2FBE6
:101B400003239A09FB689A63FB68DB6843F005028C
:101B5000FB68DA60ECE1BB68032B27D10B22022182
:101B60007748FEF75BFFFB68DB6943F00802FB6820
:101B7000DA61FB681B6A43F48072FB681A62FB68D7
:101B8000DB6943F06002FB68DA61BB697A6802FBDB
:101B900003F36C4AA2FB03239A09FB68DA63FB6830
:101BA000DB6843F00902FB68DA60C1E1BB68042B23
:101BB00040F0BE810B2203216148FEF72FFFFB6836
:101BC000DB6943F40062FB68DA61FB681B6A43F47B
:101BD0008052FB681A62FB68DB6943F4C042FB6811
:101BE000DA61BB697A6802FB03F3564AA2FB03235E
:101BF0009A09FB681A64FB68DB6843F01102FB6812
:101C0000DA6095E1FB68504A934240F0CF804F4B39
:101C1000DB694E4A43F00203D3614C4B9B694B4A4C
:101C200043F004039361494B9B69484A43F008031E
:101C30009361464B9B69454A43F001039361BB683E
:101C4000012B27D10B2206213D48FEF7E7FEFB685A
:101C50009B6943F00802FB689A61FB681B6A43F0CA
:101C60000102FB681A62FB689B6943F06002FB6833
:101C70009A61BB697A6802FB03F3324AA2FB032331
:101C80009A09FB685A63FB68DB6843F00302FB6850
:101C9000DA604DE1BB68022B27D10B2207212848CF
:101CA000FEF7BCFEFB689B6943F40062FB689A6127
:101CB000FB681B6A43F01002FB681A62FB689B69B1
:101CC00043F4C042FB689A61BB697A6802FB03F384
:101CD0001C4AA2FB03239A09FB689A63FB68DB6832
:101CE00043F00502FB68DA6022E1BB68032B31D1C7
:101CF0000B2200211648FEF791FEFB68DB6943F0DA
:101D00000802FB68DA61FB681B6A43F48072FB68B7
:101D10001A62FB68DB6943F06002FB68DA61BB6949
:101D20007A6802FB03F3074AA2FB03239A09FB68C4
:101D3000DA63FB68DB6843F00902FB68DA60F7E00E
:101D400000080140D34D6210000400400010024022
:101D5000000C0140BB68042B40F0EA800B220121FB
:101D60008248FEF75BFEFB68DB6943F40062FB68B8
:101D7000DA61FB681B6A43F48052FB681A62FB68F5
:101D8000DB6943F4C042FB68DA61BB697A6802FB35
:101D900003F3774AA2FB03239A09FB681A64FB68E2
:101DA000DB6843F01102FB68DA60C1E0FB68714A4E
:101DB000934240F0BD80704BDB696F4A43F00403EF
:101DC000D3616D4B9B696C4A43F0080393616A4B86
:101DD0009B69694A43F001039361BB68012B27D1DA
:101DE0000B2206216148FEF719FEFB689B6943F050
:101DF0000802FB689A61FB681B6A43F00102FB68FA
:101E00001A62FB689B6943F06002FB689A61BB69D8
:101E10007A6802FB03F3564AA2FB03239A09FB6884
:101E20005A63FB68DB6843F00302FB68DA607FE01B
:101E3000BB68022B27D10B2207214C48FEF7EEFD91
:101E4000FB689B6943F40062FB689A61FB681B6A4C
:101E500043F01002FB681A62FB689B6943F4C042BE
:101E6000FB689A61BB697A6802FB03F3404AA2FBF4
:101E700003239A09FB689A63FB68DB6843F0050259
:101E8000FB68DA6054E0BB68032B27D10B220821E2
:101E90003648FEF7C3FDFB68DB6943F00802FB68C8
:101EA000DA61FB681B6A43F48072FB681A62FB68A4
:101EB000DB6943F06002FB68DA61BB697A6802FBA8
:101EC00003F32B4AA2FB03239A09FB68DA63FB683E
:101ED000DB6843F00902FB68DA6029E0BB68042B89
:101EE00026D10B2209212148FEF798FDFB68DB690A
:101EF00043F40062FB68DA61FB681B6A43F48052BA
:101F0000FB681A62FB68DB6943F4C042FB68DA6174
:101F1000BB697A6802FB03F3154AA2FB03239A0903
:101F2000FB681A64FB68DB6843F01102FB68DA6047
:101F3000FB681B6843F08002FB681A60FB68BA69A3
:101F4000DA627B695A1EFB689A62FB685B6943F040
:101F50000102FB685A61FB681B6843F00102FB68E1
:101F60001A6000BF2037BD4680BD00BF000C014095
:101F7000D34D6210000800400010024080B489B0C8
:101F800000AF03463A60FB800B467B714F4BDB6929
:101F90004E4A43F00103D3614D4B1B681A684C4B0A
:101FA0001B6822F001021A600123FB770023BB614A
:101FB00001237B614FF47A733B610223FB737B79CE
:101FC000002B0DD14FF47A733B61FB8840F6B83299
:101FD000934202D96423FB7330E00A23FB732DE0A4
:101FE0003C4B3B61FB8840F6B832934202D90A234E
:101FF000FB7323E00523FB7320E03A683B69B2FBE7
:10200000F3F3FA8802FB03F27B69B2FBF3F3BB61E3
:10201000BB69B3F5FA4F0FD37B694FF6FA7293425F
:1020200005D94FF6FA737B610023FB7706E0FB7B53
:102030007A6913447B6101E00023FB77FB7F012B6E
:10204000DBD0234B1B681A68214B1B6822F001026E
:102050001A601F4B1B681A681D4B1B6842F0040274
:102060001A601B4B1B68DA68194B1B6842F00102AF
:10207000DA60174B1B68BA69DA62154B1B687A691C
:10208000013A9A62124B1B685A69114B1B6842F065
:1020900001025A610E4B1B681A680D4B1B6842F017
:1020A00001021A600C4B01221A700C4B1B680B4A80
:1020B00043F08053136000BF074B1B78002BFBD10C
:1020C00000BF2437BD4680BC704700BF00100240EF
:1020D0002400002040420F002000002000E100E02A
:1020E00080B485B000AF78600B46FB70FB78012BA5
:1020F00032D12F4BDB692E4A43F00403D3612D4BC1
:102100001B682C4A23F0010313602A4B1B68294AE1
:1021100043F004031360274BDB68264A43F00103B6
:10212000D360244B4FF47A42DA62224B00229A6247
:10213000204B5B691F4A43F0010353611D4B1B6831
:102140001C4A43F0010313601B4B1B681A4A43F0FF
:1021500080431360012325E0164B1B68154A23F0CA
:1021600001031360134B5B6A9AB2144B1A80134B32
:102170001B881A46124B1B8819464FF47A4303FBFF
:1021800001F3134419467B680E4AA2FB03239B0C00
:10219000B1FBF3F3FB600A4B00221A80074B0022CD
:1021A0001A80FB6818461437BD4680BC704700BFD4
:1021B000001002400008004000E100E0680000203C
:1021C0006600002083DE1B4380B485B000AFF8605A
:1021D000B9607A60FB703C4B1B681A683A4B1B680D
:1021E00022F001021A60FB78002B2FD1364B1B68BE
:1021F0009A69354B1B6842F400629A61324B1B6846
:102200009A69314B1B6842F4C0429A612E4B1B689D
:102210009A692D4B1B6842F008029A612A4B1B6891
:102220009A69294B1B6842F060029A61264B1B6831
:102230001A6A254B1B6842F010021A62224B1B6877
:102240001A6A214B1B6842F001021A621E4B1B687E
:102250001A681D4B1B6842F080021A601A4B1B68FB
:102260007A68DA62184B1B68BA689A63164B1B6867
:10227000BA685A63144B1B68FA689A62124B1B685F
:102280005A6C114B1B6842F400425A640E4B1B6897
:10229000DA680D4B1B6842F00102DA600A4B1B68DA
:1022A0005A69094B1B6842F001025A61064B1B68D0
:1022B0001A68054B1B6842F001021A6000BF143710
:1022C000BD4680BC704700BF0800002080B400AF4E
:1022D0000B4B1B681A690A4B1B6822F001021A613A
:1022E000084B00221A70064B1B681A68044B1B68C7
:1022F00022F001021A6000BFBD4680BC704700BFDB
:10230000240000202000002080B500AF194B1B786E
:10231000012B19D1184B1B69174A23F001031361D4
:10232000164B1B68002B05D0144B1B68013B134A4E
:1023300013601CE00F4B00221A700F4B1B680E4AF3
:1023400023F00103136012E00D4B1B681A680C4B5D
:102350001B6822F001021A60094B1B681A69084BBE
:102360001B6822F001021A61064B1B68984700BFE8
:1023700080BD00BF70000020000400406C00002001
:10238000C0000020B400002080B400AF074B1B69E0
:10239000064A23F001031361054B1B8801339AB2EF
:1023A000034B1A8000BFBD4680BC70470008004048
:1023B0006600002080B500AF5D4B1A685D4B1B685E
:1023C0009A4211D95C4B01221A705C4B00221A70A0
:1023D000584B1B685A4A1278B3FBF2F2554B1B68F4
:1023E0001344534A136018E0514B1B68632B14D8F5
:1023F000514B00221A70514B01221A70514B1B781D
:1024000083F00103DAB24F4B1A704A4B1B684C4AF7
:102410001278B3FBF2F3464A13604A4B1B78012B48
:1024200010D1494B1B681A6A474B1B6822F0010206
:102430001A62454B1B681A6A434B1B6842F0100234
:102440001A6213E03F4B1B78002B0FD13E4B1B68E9
:102450001A6A3D4B1B6822F010021A623A4B1B6845
:102460001A6A394B1B6842F001021A62334B1B781F
:10247000012B1CD1304B1B78002B18D1334B1B6820
:102480002C4A1360324B1868294B1968294B1A687B
:102490000123FFF799FE274B1B68294A1278B3FBEB
:1024A000F2F2234B1B681344214A136035E0224BA0
:1024B0001B78012B29D1214B1B78002B25D1234BD5
:1024C0001B681C4A13601A4B1A681A4B1B681C497C
:1024D0000978B3FBF1F3D31A154A13601C4B186843
:1024E000134B1968134B1A680123FFF76DFE114B4C
:1024F0001B68134A1278B3FBF2F20D4B1B689A4229
:102500000BD10B4B00221A6007E00F4B1B681A68B7
:102510000D4B1B6822F001021A600B4B1B681A69F5
:10252000094B1B6822F001021A6100BF80BD00BF89
:102530001C00002010000020650000200C0000207E
:10254000BC0000200D000020080000201800002022
:102550001400002080B500AF024B1B681B69984730
:1025600000BF80BD7400002080B500AF024B1B6827
:102570001B69984700BF80BD7400002080B500AF84
:10258000024B1B681B69984700BF80BD7400002088
:1025900070B500250C4E0D4CA41BA410A54209D10A
:1025A00000F01AF800250A4E0A4CA41BA410A542FC
:1025B00005D170BD56F8253098470135EEE756F83D
:1025C000253098470135F2E7F0250008F02500088E
:1025D000F0250008F4250008F8B500BFF8BC08BCD9
:1025E0009E467047F8B500BFF8BC08BC9E467047D1
:0425F0005501000889
:0425F40031010008A9
:1025F800E8030000BC020000002C014001010000BB
:10260800E803000001000000E80300007D0000006E
:08261800010000000000004079
:0400000508000915D1
:00000001FF
