:020000040800F2
:1000000000500020AD060008FD060008FD060008AF
:10001000FD060008FD060008FD06000800000000BF
:10002000000000000000000000000000FD060008C5
:10003000FD06000800000000FD060008FD0600089F
:10004000FD060008FD060008FD060008FD06000884
:10005000FD060008FD060008010700082507000846
:10006000490700086D07000891070008FD06000811
:10007000FD060008FD060008FD060008FD06000854
:10008000FD060008FD060008FD060008FD06000844
:10009000FD060008FD060008FD060008B50700087B
:1000A000FD060008FD0D0008FD060008FD0600081D
:1000B000350E00086D0E0008A50E0008FD060008AC
:1000C000FD060008FD060008FD060008FD06000804
:1000D000FD060008DD0E0008F10E0008050F0008FF
:1000E0005D080008FD06000800000000FD0600088D
:1000F000FD060008FD060008FD060008FD060008D4
:10010000FD060008FD060008FD060008FD060008C3
:10011000FD060008FD060008FD060008FD060008B3
:10012000FD060008FD060008FD060008FD060008A3
:1001300010B5054C237833B9044B13B10448AFF321
:1001400000800123237010BD00000020000000008B
:10015000780F000808B5034B1BB103490348AFF300
:10016000008008BD0000000004000020780F000897
:1001700080B58AB000AF78607B681B68184600F0D5
:10018000CFFB04237B610323BB617B689B883B829D
:100190007B681B6807F110021146184600F061FCED
:1001A0007B68DB883B827B681B6807F11002114685
:1001B000184600F056FC404B3B627B68DB683A6AAD
:1001C000B2FBF3F39BB2013BFB830023BB81FB8BB0
:1001D000FB817B681B7A07F10C021146184600F080
:1001E000FDFC7B681B7A032B17D801A252F823F081
:1001F00001020008070200080F02000815020008AB
:100200002E4B7B6209E04FF080437B6205E02C4B74
:100210007B6202E02B4B7B6200BF7B681B8A013B49
:10022000032B3FD801A252F823F000BF3D02000883
:1002300057020008710200088B0200087B6A9B6964
:1002400043F060027B6A9A617B6A1B6A43F0010299
:100250007B6A1A6226E07B6A9B6943F4C0427B6A30
:100260009A617B6A1B6A43F010027B6A1A6219E08A
:100270007B6ADB6943F060027B6ADA617B6A1B6A36
:1002800043F480727B6A1A620CE07B6ADB6943F498
:10029000C0427B6ADA617B6A1B6A43F480527B6AE4
:1002A0001A6200BF7B681B7A184600F02BFD00BF66
:1002B0002837BD4680BD00BF00A24A04002C014083
:1002C000000400400008004080B485B000AF7860B2
:1002D0000B46FB70FB78642B01D96423FB707B68B1
:1002E0001B7A032B17D801A252F823F0FD02000855
:1002F000030300080B030008110300081E4BFB60FA
:1003000009E04FF08043FB6005E01C4BFB6002E01E
:100310001B4BFB6000BFFB68DB6AFA7802FB03F350
:10032000184AA2FB03235B097B817B681B8A013B84
:10033000032B1BD801A252F823F000BF4D03000885
:10034000550300085D030008650300087A89FB680F
:100350005A630BE07A89FB689A6307E07A89FB6845
:10036000DA6303E07A89FB681A6400BF00BF1437C0
:10037000BD4680BC704700BF002C01400004004017
:10038000000800401F85EB5180B582B000AF786057
:100390007B681846FFF7ECFE7B6814331846FFF7BE
:1003A000E7FE7B6828331846FFF7E2FE7B683C33A4
:1003B0001846FFF7DDFE00BF0837BD4680BD80B59B
:1003C00082B000AF78600B46FB707B68FA7811460C
:1003D0001846FFF779FF7B681433FA781146184600
:1003E000FFF772FF7B682833FA7811461846FFF74B
:1003F0006BFF7B683C33FA7811461846FFF764FFC1
:100400007B6818687B689B880122194600F0CDFB49
:100410007B6818687B68DB880022194600F0C5FB02
:100420007B6858697B681B8B0122194600F0BDFB75
:100430007B6858697B685B8B0022194600F0B5FB2E
:100440007B68986A7B689B8D0122194600F0ADFBA2
:100450007B6818687B68DB880022194600F0A5FBE2
:100460007B6858697B681B8B0122194600F09DFB55
:100470007B6858697B685B8B0022194600F095FB0E
:1004800000BF0837BD4680BD80B582B000AF786040
:100490000B46FB707B68FA7811461846FFF714FF8D
:1004A0007B682833FA7811461846FFF70DFF7B6802
:1004B000143300211846FFF707FF7B683C33002107
:1004C0001846FFF701FF7B6818687B689B8801224C
:1004D000194600F06AFB7B6818687B68DB8800229D
:1004E000194600F062FB7B68986A7B689B8D01224D
:1004F000194600F05AFB7B68986A7B68DB8D002206
:10050000194600F052FB00BF0837BD4680BD80B5DC
:1005100082B000AF78600B46FB707B681433FA78CA
:1005200011461846FFF7D0FE7B683C33FA78114637
:100530001846FFF7C9FE7B6800211846FFF7C4FE86
:100540007B68283300211846FFF7BEFE7B68586998
:100550007B681B8B0122194600F027FB7B685869DA
:100560007B685B8B0022194600F01FFB7B68D86B11
:100570007B68B3F840300122194600F016FB7B6817
:10058000D86B7B68B3F842300022194600F00DFBAF
:1005900000BF0837BD4680BD80B582B000AF78602F
:1005A0007B6800211846FFF78FFE7B68143300211B
:1005B0001846FFF789FE7B68283300211846FFF7AD
:1005C00083FE7B683C3300211846FFF77DFE00BFA9
:1005D0000837BD4680BD000080B584B000AF7860AC
:1005E0004723BB817B689BB2FB8107F10C03194653
:1005F000032000F0F3FA032000F084FB00BF094B56
:100600001B6903F00103002BF9D0064B1B69054A57
:1006100023F001031361032000F0B2FB00BF103789
:10062000BD4680BD0008004080B582B000AF786054
:1006300003E04FF47A70FFF7CFFF7B685A1E7A60B1
:10064000002BF6D100BF0837BD4680BD80B594B001
:1006500000AF154A3B4611465022184600F080FC78
:100660003B461846FFF790FE3B4632211846FFF7FF
:10067000A6FE3B4646211846FFF749FF40F6B83034
:10068000FFF7D2FF3B4646211846FFF7FDFE40F636
:10069000B830FFF7C9FF3B461846FFF77DFF4FF420
:1006A0007A70FFF7C1FFFEE7900F00080D488546FE
:1006B000AFF300800C480D490D4A002302E0D458E6
:1006C000C4500433C4188C42F9D30A4A0A4C00239C
:1006D00001E013600432A242FBD300F01DFCFFF7DF
:1006E000B5FFFEE7005000200000002000000020C1
:1006F000E80F00080000002070000020FEE7000066
:1007000080B500AF054B1B689847054B5B69044AF1
:1007100043F00103536100BF80BD00BF30000020E3
:100720000004014080B500AF054B5B689847054B5E
:100730005B69044A43F00203536100BF80BD00BF00
:10074000300000200004014080B500AF054B9B68DD
:100750009847054B5B69044A43F00403536100BFAB
:1007600080BD00BF300000200004014080B500AF14
:10077000054BDB689847054B5B69044A43F0080367
:10078000536100BF80BD00BF300000200004014065
:1007900080B500AF054B1B699847054B5B69044A60
:1007A00043F01003536100BF80BD00BF3000002044
:1007B0000004014080B500AF264B5B6903F02003C5
:1007C000002B08D0244B5B699847224B5B69214A78
:1007D00043F0200353611F4B5B6903F04003002B80
:1007E00008D01D4B9B6998471A4B5B69194A43F027
:1007F00040035361174B5B6903F08003002B08D063
:10080000154BDB699847134B5B69124A43F0800331
:100810005361104B5B6903F48073002B08D00E4BBF
:100820001B6A98470B4B5B690A4A43F48073536118
:10083000084B5B6903F40073002B08D0064B5B6A1E
:100840009847044B5B69034A43F40073536100BF4C
:1008500080BD00BF000401403000002080B500AF23
:100860002D4B5B6903F48063002B08D02B4B9B6AF4
:100870009847294B5B69284A43F480635361264BB0
:100880005B6903F40063002B08D0244BDB6A9847B4
:10089000214B5B69204A43F4006353611E4B5B6943
:1008A00003F48053002B08D01C4B1B6B98471A4B4A
:1008B0005B69194A43F480535361174B5B6903F436
:1008C0000053002B08D0154B5B6B9847124B5B69AC
:1008D000114A43F4005353610F4B5B6903F48043A7
:1008E000002B08D00D4B9B6B98470B4B5B690A4A5A
:1008F00043F480435361084B5B6903F40043002BCE
:1009000008D0064BDB6B9847034B5B69024A43F404
:100910000043536100BF80BD00040140300000204F
:1009200080B483B000AF78607B68174A934206D1E9
:10093000164B9B69154A43F0040393611FE07B68E3
:10094000134A934206D1114B9B69104A43F00803A6
:10095000936114E07B680F4A934206D10B4B9B696D
:100960000A4A43F01003936109E07B680A4A934204
:1009700005D1064B9B69054A43F02003936100BFF4
:100980000C37BD4680BC7047000801400010024093
:10099000000C0140001001400014014080B483B0FD
:1009A00000AF0346FB80FB88802B42D0802B11DCFC
:1009B000082B36D0082B06DC022B2ED0042B2ED091
:1009C000012B28D047E0202B2FD0402B2FD0102BED
:1009D00029D040E0B3F5006F33D0B3F5006F09DCE8
:1009E000B3F5007F29D0B3F5806F28D0B3F5807FB1
:1009F00021D030E0B3F5005F27D0B3F5005F03DC12
:100A0000B3F5805F1FD026E0B3F5804F1FD0B3F55C
:100A1000004F1ED01FE000231EE004231CE008232B
:100A20001AE00C2318E0102316E0142314E0182316
:100A300012E01C2310E000230EE004230CE0082346
:100A40000AE00C2308E0102306E0142304E0182336
:100A500002E01C2300E0002318460C37BD4680BC92
:100A6000704790B585B000AF786039600023FB60B7
:100A70003B681B88FF2B01D87B6801E07B6804334F
:100A8000FB603B681B881846FFF788FF03461A4641
:100A90000F239340DA43FB681B681A40FB681A6017
:100AA0003B685B68042B0BD03B685B68052B07D069
:100AB0003B685B68062B03D03B685B68072B17D14C
:100AC0003B685B68043B9A003B689B68134303F0F8
:100AD0000F043B681B881846FFF760FF034604FAC3
:100AE00003F2FB681B681A43FB681A6000BF58E0FA
:100AF0003B685B68022B1CD17B68DB683A68128814
:100B00001A437B68DA603B685B689A003B689B68C5
:100B1000134303F00F043B681B881846FFF73EFFA2
:100B2000034604FA03F2FB681B681A43FB681A6069
:100B300037E03B685B68032B1ED17B68DB683A6853
:100B40001288D2431A407B68DA603B685B68013BDD
:100B50009A003B689B68134303F00F043B681B88B3
:100B60001846FFF71BFF034604FA03F2FB681B68F5
:100B70001A43FB681A6014E03B685B689A003B68A4
:100B80009B68134303F00F043B681B881846FFF76C
:100B900005FF034604FA03F2FB681B681A43FB686F
:100BA0001A6000BF1437BD4690BD80B483B000AF5B
:100BB00078600B467B8013467B707B78012B03D1DA
:100BC0007A887B681A6104E07B881B041A467B687C
:100BD0001A6100BF0C37BD4680BC704780B483B03B
:100BE00000AF03463960FB71FB79032B7CD801A26F
:100BF00052F823F0050C00083B0C00087D0C00089F
:100C0000B30C00083B4B9B693A4A43F40063936181
:100C10003B681A88384B9A623B685A88364BDA62CE
:100C2000354B1B68344A23F010031360324B5B6969
:100C3000314A43F00103536156E02E4BDB692D4AE4
:100C400043F00103D3613B681A884FF080439A62F6
:100C50003B685A884FF08043DA624FF080431B684C
:100C60004FF0804223F0100313604FF080435B6924
:100C70004FF0804243F00103536135E01D4BDB69C7
:100C80001C4A43F00203D3613B681A881B4B9A62EB
:100C90003B685A88194BDA62184B1B68174A23F0D5
:100CA00010031360154B5B69144A43F00103536151
:100CB0001AE0104BDB690F4A43F00403D3613B6831
:100CC0001A880F4B9A623B685A880D4BDA620C4BBC
:100CD0001B680B4A23F010031360094B5B69084A39
:100CE00043F00103536100BF00BF0C37BD4680BC19
:100CF000704700BF00100240002C0140000400407B
:100D00000008004080B483B000AF0346FB71FB795C
:100D1000032B29D801A252F823F000BF2D0D0008A3
:100D20003B0D00084D0D00085B0D0008114B1B68C2
:100D3000104A43F00103136016E04FF080431B6834
:100D40004FF0804243F0010313600DE00A4B1B6833
:100D5000094A43F00103136006E0084B1B68074A89
:100D600043F00103136000BF00BF0C37BD4680BCD9
:100D7000704700BF002C0140000400400008004004
:100D800080B483B000AF0346FB71FB79032B29D8F5
:100D900001A252F823F000BFA90D0008B70D00080A
:100DA000C90D0008D70D0008114B1B68104A23F02D
:100DB0000103136016E04FF080431B684FF0804240
:100DC00023F0010313600DE00A4B1B68094A23F06E
:100DD0000103136006E0084B1B68074A23F0010378
:100DE000136000BF00BF0C37BD4680BC704700BF1A
:100DF000002C0140000400400008004080B500AF16
:100E00000A4B1B6903F00103002B0CD0074B1B6935
:100E1000064A23F001031361054B1B68002B02D027
:100E2000034B1B68984700BF80BD00BF002C0140EA
:100E30001C00002080B500AF4FF080431B6903F019
:100E40000103002B0ED04FF080431B694FF080420E
:100E500023F001031361044B1B68002B02D0024BEB
:100E60001B68984700BF80BD2000002080B500AF00
:100E70000A4B1B6903F00103002B0CD0074B1B69C5
:100E8000064A23F001031361054B1B68002B02D0B7
:100E9000034B1B68984700BF80BD00BF00040040A3
:100EA0002400002080B500AF0A4B1B6903F001034A
:100EB000002B0CD0074B1B69064A23F0010313617A
:100EC000054B1B68002B02D0034B1B68984700BFE3
:100ED00080BD00BF000800402800002080B500AFA2
:100EE000024B1B681B69984700BF80BD2C00002087
:100EF00080B500AF024B1B681B69984700BF80BDDF
:100F00002C00002080B500AF024B1B681B6998477E
:100F100000BF80BD2C00002070B500250C4E0D4C8C
:100F2000A41BA410A54209D100F026F800250A4E02
:100F30000A4CA41BA410A54205D170BD56F825305B
:100F400098470135EEE756F8253098470135F2E726
:100F5000E00F0008E00F0008E00F0008E40F0008B1
:100F600010B5431E0A44914200D110BD11F8014B47
:100F700003F8014FF7E70000F8B500BFF8BC08BC64
:100F80009E467047F8B500BFF8BC08BC9E46704747
:100F9000000801400100020001000000E803000019
:100FA00001000000000801400400080001000000EA
:100FB000E803000002000000000C014001000200F4
:100FC00002000000E803000001000000000C0140E6
:100FD0004000800003000000E80300000100000062
:040FE00055010008AF
:040FE40031010008CF
:04000005080006AD3C
:00000001FF
